{
	"contracts/DIOVoting.sol": {
		"DIOVoting": {
			"abi": [
				{
					"inputs": [
						{
							"internalType": "string[]",
							"name": "candidateNames",
							"type": "string[]"
						}
					],
					"stateMutability": "nonpayable",
					"type": "constructor"
				},
				{
					"inputs": [
						{
							"internalType": "uint256",
							"name": "",
							"type": "uint256"
						}
					],
					"name": "candidateList",
					"outputs": [
						{
							"internalType": "string",
							"name": "",
							"type": "string"
						}
					],
					"stateMutability": "view",
					"type": "function"
				},
				{
					"inputs": [
						{
							"internalType": "string",
							"name": "candidate",
							"type": "string"
						}
					],
					"name": "totalVotesFor",
					"outputs": [
						{
							"internalType": "uint256",
							"name": "",
							"type": "uint256"
						}
					],
					"stateMutability": "view",
					"type": "function"
				},
				{
					"inputs": [
						{
							"internalType": "string",
							"name": "candidate",
							"type": "string"
						}
					],
					"name": "validCandidate",
					"outputs": [
						{
							"internalType": "bool",
							"name": "",
							"type": "bool"
						}
					],
					"stateMutability": "view",
					"type": "function"
				},
				{
					"inputs": [
						{
							"internalType": "string",
							"name": "candidate",
							"type": "string"
						}
					],
					"name": "voteForCandidate",
					"outputs": [],
					"stateMutability": "nonpayable",
					"type": "function"
				},
				{
					"inputs": [
						{
							"internalType": "string",
							"name": "",
							"type": "string"
						}
					],
					"name": "votesReceived",
					"outputs": [
						{
							"internalType": "uint256",
							"name": "",
							"type": "uint256"
						}
					],
					"stateMutability": "view",
					"type": "function"
				}
			],
			"devdoc": {
				"kind": "dev",
				"methods": {},
				"version": 1
			},
			"evm": {
				"assembly": "    /* \"contracts/DIOVoting.sol\":35:942  contract DIOVoting {... */\n  mstore(0x40, 0x80)\n    /* \"contracts/DIOVoting.sol\":158:251  constructor (string[] memory candidateNames){... */\n  callvalue\n  dup1\n  iszero\n  tag_1\n  jumpi\n  0x00\n  dup1\n  revert\ntag_1:\n  pop\n  mload(0x40)\n  sub(codesize, bytecodeSize)\n  dup1\n  bytecodeSize\n  dup4\n  codecopy\n  dup2\n  dup2\n  add\n  0x40\n  mstore\n  dup2\n  add\n  swap1\n  tag_2\n  swap2\n  swap1\n  tag_3\n  jump\t// in\ntag_2:\n    /* \"contracts/DIOVoting.sol\":229:243  candidateNames */\n  dup1\n    /* \"contracts/DIOVoting.sol\":213:226  candidateList */\n  0x01\n    /* \"contracts/DIOVoting.sol\":213:243  candidateList = candidateNames */\n  swap1\n  dup1\n  mload\n  swap1\n  0x20\n  add\n  swap1\n  tag_6\n  swap3\n  swap2\n  swap1\n  tag_7\n  jump\t// in\ntag_6:\n  pop\n    /* \"contracts/DIOVoting.sol\":158:251  constructor (string[] memory candidateNames){... */\n  pop\n    /* \"contracts/DIOVoting.sol\":35:942  contract DIOVoting {... */\n  jump(tag_8)\ntag_7:\n  dup3\n  dup1\n  sload\n  dup3\n  dup3\n  sstore\n  swap1\n  0x00\n  mstore\n  keccak256(0x00, 0x20)\n  swap1\n  dup2\n  add\n  swap3\n  dup3\n  iszero\n  tag_9\n  jumpi\n  swap2\n  0x20\n  mul\n  dup3\n  add\ntag_10:\n  dup3\n  dup2\n  gt\n  iszero\n  tag_11\n  jumpi\n  dup3\n  mload\n  dup3\n  swap1\n  dup2\n  tag_12\n  swap2\n  swap1\n  tag_13\n  jump\t// in\ntag_12:\n  pop\n  swap2\n  0x20\n  add\n  swap2\n  swap1\n  0x01\n  add\n  swap1\n  jump(tag_10)\ntag_11:\ntag_9:\n  pop\n  swap1\n  pop\n  tag_14\n  swap2\n  swap1\n  tag_15\n  jump\t// in\ntag_14:\n  pop\n  swap1\n  jump\t// out\ntag_15:\ntag_16:\n  dup1\n  dup3\n  gt\n  iszero\n  tag_17\n  jumpi\n  0x00\n  dup2\n  dup2\n  tag_18\n  swap2\n  swap1\n  tag_19\n  jump\t// in\ntag_18:\n  pop\n  0x01\n  add\n  jump(tag_16)\ntag_17:\n  pop\n  swap1\n  jump\t// out\ntag_19:\n  pop\n  dup1\n  sload\n  tag_20\n  swap1\n  tag_21\n  jump\t// in\ntag_20:\n  0x00\n  dup3\n  sstore\n  dup1\n  0x1f\n  lt\n  tag_23\n  jumpi\n  pop\n  jump(tag_22)\ntag_23:\n  0x1f\n  add\n  0x20\n  swap1\n  div\n  swap1\n  0x00\n  mstore\n  keccak256(0x00, 0x20)\n  swap1\n  dup2\n  add\n  swap1\n  tag_24\n  swap2\n  swap1\n  tag_25\n  jump\t// in\ntag_24:\ntag_22:\n  pop\n  jump\t// out\ntag_25:\ntag_26:\n  dup1\n  dup3\n  gt\n  iszero\n  tag_27\n  jumpi\n  0x00\n  dup2\n  0x00\n  swap1\n  sstore\n  pop\n  0x01\n  add\n  jump(tag_26)\ntag_27:\n  pop\n  swap1\n  jump\t// out\n    /* \"#utility.yul\":7:82   */\ntag_28:\n    /* \"#utility.yul\":40:46   */\n  0x00\n    /* \"#utility.yul\":73:75   */\n  0x40\n    /* \"#utility.yul\":67:76   */\n  mload\n    /* \"#utility.yul\":57:76   */\n  swap1\n  pop\n    /* \"#utility.yul\":7:82   */\n  swap1\n  jump\t// out\n    /* \"#utility.yul\":88:205   */\ntag_29:\n    /* \"#utility.yul\":197:198   */\n  0x00\n    /* \"#utility.yul\":194:195   */\n  dup1\n    /* \"#utility.yul\":187:199   */\n  revert\n    /* \"#utility.yul\":211:328   */\ntag_30:\n    /* \"#utility.yul\":320:321   */\n  0x00\n    /* \"#utility.yul\":317:318   */\n  dup1\n    /* \"#utility.yul\":310:322   */\n  revert\n    /* \"#utility.yul\":334:451   */\ntag_31:\n    /* \"#utility.yul\":443:444   */\n  0x00\n    /* \"#utility.yul\":440:441   */\n  dup1\n    /* \"#utility.yul\":433:445   */\n  revert\n    /* \"#utility.yul\":457:559   */\ntag_32:\n    /* \"#utility.yul\":498:504   */\n  0x00\n    /* \"#utility.yul\":549:551   */\n  0x1f\n    /* \"#utility.yul\":545:552   */\n  not\n    /* \"#utility.yul\":540:542   */\n  0x1f\n    /* \"#utility.yul\":533:538   */\n  dup4\n    /* \"#utility.yul\":529:543   */\n  add\n    /* \"#utility.yul\":525:553   */\n  and\n    /* \"#utility.yul\":515:553   */\n  swap1\n  pop\n    /* \"#utility.yul\":457:559   */\n  swap2\n  swap1\n  pop\n  jump\t// out\n    /* \"#utility.yul\":565:745   */\ntag_33:\n    /* \"#utility.yul\":613:690   */\n  0x4e487b7100000000000000000000000000000000000000000000000000000000\n    /* \"#utility.yul\":610:611   */\n  0x00\n    /* \"#utility.yul\":603:691   */\n  mstore\n    /* \"#utility.yul\":710:714   */\n  0x41\n    /* \"#utility.yul\":707:708   */\n  0x04\n    /* \"#utility.yul\":700:715   */\n  mstore\n    /* \"#utility.yul\":734:738   */\n  0x24\n    /* \"#utility.yul\":731:732   */\n  0x00\n    /* \"#utility.yul\":724:739   */\n  revert\n    /* \"#utility.yul\":751:1032   */\ntag_34:\n    /* \"#utility.yul\":834:861   */\n  tag_71\n    /* \"#utility.yul\":856:860   */\n  dup3\n    /* \"#utility.yul\":834:861   */\n  tag_32\n  jump\t// in\ntag_71:\n    /* \"#utility.yul\":826:832   */\n  dup2\n    /* \"#utility.yul\":822:862   */\n  add\n    /* \"#utility.yul\":964:970   */\n  dup2\n    /* \"#utility.yul\":952:962   */\n  dup2\n    /* \"#utility.yul\":949:971   */\n  lt\n    /* \"#utility.yul\":928:946   */\n  0xffffffffffffffff\n    /* \"#utility.yul\":916:926   */\n  dup3\n    /* \"#utility.yul\":913:947   */\n  gt\n    /* \"#utility.yul\":910:972   */\n  or\n    /* \"#utility.yul\":907:995   */\n  iszero\n  tag_72\n  jumpi\n    /* \"#utility.yul\":975:993   */\n  tag_73\n  tag_33\n  jump\t// in\ntag_73:\n    /* \"#utility.yul\":907:995   */\ntag_72:\n    /* \"#utility.yul\":1015:1025   */\n  dup1\n    /* \"#utility.yul\":1011:1013   */\n  0x40\n    /* \"#utility.yul\":1004:1026   */\n  mstore\n    /* \"#utility.yul\":794:1032   */\n  pop\n    /* \"#utility.yul\":751:1032   */\n  pop\n  pop\n  jump\t// out\n    /* \"#utility.yul\":1038:1167   */\ntag_35:\n    /* \"#utility.yul\":1072:1078   */\n  0x00\n    /* \"#utility.yul\":1099:1119   */\n  tag_75\n  tag_28\n  jump\t// in\ntag_75:\n    /* \"#utility.yul\":1089:1119   */\n  swap1\n  pop\n    /* \"#utility.yul\":1128:1161   */\n  tag_76\n    /* \"#utility.yul\":1156:1160   */\n  dup3\n    /* \"#utility.yul\":1148:1154   */\n  dup3\n    /* \"#utility.yul\":1128:1161   */\n  tag_34\n  jump\t// in\ntag_76:\n    /* \"#utility.yul\":1038:1167   */\n  swap2\n  swap1\n  pop\n  jump\t// out\n    /* \"#utility.yul\":1173:1494   */\ntag_36:\n    /* \"#utility.yul\":1260:1264   */\n  0x00\n    /* \"#utility.yul\":1350:1368   */\n  0xffffffffffffffff\n    /* \"#utility.yul\":1342:1348   */\n  dup3\n    /* \"#utility.yul\":1339:1369   */\n  gt\n    /* \"#utility.yul\":1336:1392   */\n  iszero\n  tag_78\n  jumpi\n    /* \"#utility.yul\":1372:1390   */\n  tag_79\n  tag_33\n  jump\t// in\ntag_79:\n    /* \"#utility.yul\":1336:1392   */\ntag_78:\n    /* \"#utility.yul\":1422:1426   */\n  0x20\n    /* \"#utility.yul\":1414:1420   */\n  dup3\n    /* \"#utility.yul\":1410:1427   */\n  mul\n    /* \"#utility.yul\":1402:1427   */\n  swap1\n  pop\n    /* \"#utility.yul\":1482:1486   */\n  0x20\n    /* \"#utility.yul\":1476:1480   */\n  dup2\n    /* \"#utility.yul\":1472:1487   */\n  add\n    /* \"#utility.yul\":1464:1487   */\n  swap1\n  pop\n    /* \"#utility.yul\":1173:1494   */\n  swap2\n  swap1\n  pop\n  jump\t// out\n    /* \"#utility.yul\":1500:1617   */\ntag_37:\n    /* \"#utility.yul\":1609:1610   */\n  0x00\n    /* \"#utility.yul\":1606:1607   */\n  dup1\n    /* \"#utility.yul\":1599:1611   */\n  revert\n    /* \"#utility.yul\":1623:1740   */\ntag_38:\n    /* \"#utility.yul\":1732:1733   */\n  0x00\n    /* \"#utility.yul\":1729:1730   */\n  dup1\n    /* \"#utility.yul\":1722:1734   */\n  revert\n    /* \"#utility.yul\":1746:2054   */\ntag_39:\n    /* \"#utility.yul\":1808:1812   */\n  0x00\n    /* \"#utility.yul\":1898:1916   */\n  0xffffffffffffffff\n    /* \"#utility.yul\":1890:1896   */\n  dup3\n    /* \"#utility.yul\":1887:1917   */\n  gt\n    /* \"#utility.yul\":1884:1940   */\n  iszero\n  tag_83\n  jumpi\n    /* \"#utility.yul\":1920:1938   */\n  tag_84\n  tag_33\n  jump\t// in\ntag_84:\n    /* \"#utility.yul\":1884:1940   */\ntag_83:\n    /* \"#utility.yul\":1958:1987   */\n  tag_85\n    /* \"#utility.yul\":1980:1986   */\n  dup3\n    /* \"#utility.yul\":1958:1987   */\n  tag_32\n  jump\t// in\ntag_85:\n    /* \"#utility.yul\":1950:1987   */\n  swap1\n  pop\n    /* \"#utility.yul\":2042:2046   */\n  0x20\n    /* \"#utility.yul\":2036:2040   */\n  dup2\n    /* \"#utility.yul\":2032:2047   */\n  add\n    /* \"#utility.yul\":2024:2047   */\n  swap1\n  pop\n    /* \"#utility.yul\":1746:2054   */\n  swap2\n  swap1\n  pop\n  jump\t// out\n    /* \"#utility.yul\":2060:2199   */\ntag_40:\n    /* \"#utility.yul\":2149:2155   */\n  dup3\n    /* \"#utility.yul\":2144:2147   */\n  dup2\n    /* \"#utility.yul\":2139:2142   */\n  dup4\n    /* \"#utility.yul\":2133:2156   */\n  mcopy\n    /* \"#utility.yul\":2190:2191   */\n  0x00\n    /* \"#utility.yul\":2181:2187   */\n  dup4\n    /* \"#utility.yul\":2176:2179   */\n  dup4\n    /* \"#utility.yul\":2172:2188   */\n  add\n    /* \"#utility.yul\":2165:2192   */\n  mstore\n    /* \"#utility.yul\":2060:2199   */\n  pop\n  pop\n  pop\n  jump\t// out\n    /* \"#utility.yul\":2205:2639   */\ntag_41:\n    /* \"#utility.yul\":2294:2299   */\n  0x00\n    /* \"#utility.yul\":2319:2385   */\n  tag_88\n    /* \"#utility.yul\":2335:2384   */\n  tag_89\n    /* \"#utility.yul\":2377:2383   */\n  dup5\n    /* \"#utility.yul\":2335:2384   */\n  tag_39\n  jump\t// in\ntag_89:\n    /* \"#utility.yul\":2319:2385   */\n  tag_35\n  jump\t// in\ntag_88:\n    /* \"#utility.yul\":2310:2385   */\n  swap1\n  pop\n    /* \"#utility.yul\":2408:2414   */\n  dup3\n    /* \"#utility.yul\":2401:2406   */\n  dup2\n    /* \"#utility.yul\":2394:2415   */\n  mstore\n    /* \"#utility.yul\":2446:2450   */\n  0x20\n    /* \"#utility.yul\":2439:2444   */\n  dup2\n    /* \"#utility.yul\":2435:2451   */\n  add\n    /* \"#utility.yul\":2484:2487   */\n  dup5\n    /* \"#utility.yul\":2475:2481   */\n  dup5\n    /* \"#utility.yul\":2470:2473   */\n  dup5\n    /* \"#utility.yul\":2466:2482   */\n  add\n    /* \"#utility.yul\":2463:2488   */\n  gt\n    /* \"#utility.yul\":2460:2572   */\n  iszero\n  tag_90\n  jumpi\n    /* \"#utility.yul\":2491:2570   */\n  tag_91\n  tag_38\n  jump\t// in\ntag_91:\n    /* \"#utility.yul\":2460:2572   */\ntag_90:\n    /* \"#utility.yul\":2581:2633   */\n  tag_92\n    /* \"#utility.yul\":2626:2632   */\n  dup5\n    /* \"#utility.yul\":2621:2624   */\n  dup3\n    /* \"#utility.yul\":2616:2619   */\n  dup6\n    /* \"#utility.yul\":2581:2633   */\n  tag_40\n  jump\t// in\ntag_92:\n    /* \"#utility.yul\":2300:2639   */\n  pop\n    /* \"#utility.yul\":2205:2639   */\n  swap4\n  swap3\n  pop\n  pop\n  pop\n  jump\t// out\n    /* \"#utility.yul\":2659:3014   */\ntag_42:\n    /* \"#utility.yul\":2726:2731   */\n  0x00\n    /* \"#utility.yul\":2775:2778   */\n  dup3\n    /* \"#utility.yul\":2768:2772   */\n  0x1f\n    /* \"#utility.yul\":2760:2766   */\n  dup4\n    /* \"#utility.yul\":2756:2773   */\n  add\n    /* \"#utility.yul\":2752:2779   */\n  slt\n    /* \"#utility.yul\":2742:2864   */\n  tag_94\n  jumpi\n    /* \"#utility.yul\":2783:2862   */\n  tag_95\n  tag_31\n  jump\t// in\ntag_95:\n    /* \"#utility.yul\":2742:2864   */\ntag_94:\n    /* \"#utility.yul\":2893:2899   */\n  dup2\n    /* \"#utility.yul\":2887:2900   */\n  mload\n    /* \"#utility.yul\":2918:3008   */\n  tag_96\n    /* \"#utility.yul\":3004:3007   */\n  dup5\n    /* \"#utility.yul\":2996:3002   */\n  dup3\n    /* \"#utility.yul\":2989:2993   */\n  0x20\n    /* \"#utility.yul\":2981:2987   */\n  dup7\n    /* \"#utility.yul\":2977:2994   */\n  add\n    /* \"#utility.yul\":2918:3008   */\n  tag_41\n  jump\t// in\ntag_96:\n    /* \"#utility.yul\":2909:3008   */\n  swap2\n  pop\n    /* \"#utility.yul\":2732:3014   */\n  pop\n    /* \"#utility.yul\":2659:3014   */\n  swap3\n  swap2\n  pop\n  pop\n  jump\t// out\n    /* \"#utility.yul\":3036:3996   */\ntag_43:\n    /* \"#utility.yul\":3153:3158   */\n  0x00\n    /* \"#utility.yul\":3178:3269   */\n  tag_98\n    /* \"#utility.yul\":3194:3268   */\n  tag_99\n    /* \"#utility.yul\":3261:3267   */\n  dup5\n    /* \"#utility.yul\":3194:3268   */\n  tag_36\n  jump\t// in\ntag_99:\n    /* \"#utility.yul\":3178:3269   */\n  tag_35\n  jump\t// in\ntag_98:\n    /* \"#utility.yul\":3169:3269   */\n  swap1\n  pop\n    /* \"#utility.yul\":3289:3294   */\n  dup1\n    /* \"#utility.yul\":3318:3324   */\n  dup4\n    /* \"#utility.yul\":3311:3316   */\n  dup3\n    /* \"#utility.yul\":3304:3325   */\n  mstore\n    /* \"#utility.yul\":3352:3356   */\n  0x20\n    /* \"#utility.yul\":3345:3350   */\n  dup3\n    /* \"#utility.yul\":3341:3357   */\n  add\n    /* \"#utility.yul\":3334:3357   */\n  swap1\n  pop\n    /* \"#utility.yul\":3405:3409   */\n  0x20\n    /* \"#utility.yul\":3397:3403   */\n  dup5\n    /* \"#utility.yul\":3393:3410   */\n  mul\n    /* \"#utility.yul\":3385:3391   */\n  dup4\n    /* \"#utility.yul\":3381:3411   */\n  add\n    /* \"#utility.yul\":3434:3437   */\n  dup6\n    /* \"#utility.yul\":3426:3432   */\n  dup2\n    /* \"#utility.yul\":3423:3438   */\n  gt\n    /* \"#utility.yul\":3420:3542   */\n  iszero\n  tag_100\n  jumpi\n    /* \"#utility.yul\":3453:3532   */\n  tag_101\n  tag_37\n  jump\t// in\ntag_101:\n    /* \"#utility.yul\":3420:3542   */\ntag_100:\n    /* \"#utility.yul\":3568:3574   */\n  dup4\n    /* \"#utility.yul\":3551:3990   */\ntag_102:\n    /* \"#utility.yul\":3585:3591   */\n  dup2\n    /* \"#utility.yul\":3580:3583   */\n  dup2\n    /* \"#utility.yul\":3577:3592   */\n  lt\n    /* \"#utility.yul\":3551:3990   */\n  iszero\n  tag_104\n  jumpi\n    /* \"#utility.yul\":3667:3670   */\n  dup1\n    /* \"#utility.yul\":3661:3671   */\n  mload\n    /* \"#utility.yul\":3703:3721   */\n  0xffffffffffffffff\n    /* \"#utility.yul\":3690:3701   */\n  dup2\n    /* \"#utility.yul\":3687:3722   */\n  gt\n    /* \"#utility.yul\":3684:3806   */\n  iszero\n  tag_105\n  jumpi\n    /* \"#utility.yul\":3725:3804   */\n  tag_106\n  tag_31\n  jump\t// in\ntag_106:\n    /* \"#utility.yul\":3684:3806   */\ntag_105:\n    /* \"#utility.yul\":3849:3860   */\n  dup1\n    /* \"#utility.yul\":3841:3847   */\n  dup7\n    /* \"#utility.yul\":3837:3861   */\n  add\n    /* \"#utility.yul\":3887:3945   */\n  tag_107\n    /* \"#utility.yul\":3941:3944   */\n  dup10\n    /* \"#utility.yul\":3929:3939   */\n  dup3\n    /* \"#utility.yul\":3887:3945   */\n  tag_42\n  jump\t// in\ntag_107:\n    /* \"#utility.yul\":3882:3885   */\n  dup6\n    /* \"#utility.yul\":3875:3946   */\n  mstore\n    /* \"#utility.yul\":3975:3979   */\n  0x20\n    /* \"#utility.yul\":3970:3973   */\n  dup6\n    /* \"#utility.yul\":3966:3980   */\n  add\n    /* \"#utility.yul\":3959:3980   */\n  swap5\n  pop\n    /* \"#utility.yul\":3627:3990   */\n  pop\n  pop\n    /* \"#utility.yul\":3611:3615   */\n  0x20\n    /* \"#utility.yul\":3606:3609   */\n  dup2\n    /* \"#utility.yul\":3602:3616   */\n  add\n    /* \"#utility.yul\":3595:3616   */\n  swap1\n  pop\n    /* \"#utility.yul\":3551:3990   */\n  jump(tag_102)\ntag_104:\n    /* \"#utility.yul\":3555:3576   */\n  pop\n    /* \"#utility.yul\":3159:3996   */\n  pop\n  pop\n    /* \"#utility.yul\":3036:3996   */\n  swap4\n  swap3\n  pop\n  pop\n  pop\n  jump\t// out\n    /* \"#utility.yul\":4018:4423   */\ntag_44:\n    /* \"#utility.yul\":4110:4115   */\n  0x00\n    /* \"#utility.yul\":4159:4162   */\n  dup3\n    /* \"#utility.yul\":4152:4156   */\n  0x1f\n    /* \"#utility.yul\":4144:4150   */\n  dup4\n    /* \"#utility.yul\":4140:4157   */\n  add\n    /* \"#utility.yul\":4136:4163   */\n  slt\n    /* \"#utility.yul\":4126:4248   */\n  tag_109\n  jumpi\n    /* \"#utility.yul\":4167:4246   */\n  tag_110\n  tag_31\n  jump\t// in\ntag_110:\n    /* \"#utility.yul\":4126:4248   */\ntag_109:\n    /* \"#utility.yul\":4277:4283   */\n  dup2\n    /* \"#utility.yul\":4271:4284   */\n  mload\n    /* \"#utility.yul\":4302:4417   */\n  tag_111\n    /* \"#utility.yul\":4413:4416   */\n  dup5\n    /* \"#utility.yul\":4405:4411   */\n  dup3\n    /* \"#utility.yul\":4398:4402   */\n  0x20\n    /* \"#utility.yul\":4390:4396   */\n  dup7\n    /* \"#utility.yul\":4386:4403   */\n  add\n    /* \"#utility.yul\":4302:4417   */\n  tag_43\n  jump\t// in\ntag_111:\n    /* \"#utility.yul\":4293:4417   */\n  swap2\n  pop\n    /* \"#utility.yul\":4116:4423   */\n  pop\n    /* \"#utility.yul\":4018:4423   */\n  swap3\n  swap2\n  pop\n  pop\n  jump\t// out\n    /* \"#utility.yul\":4429:5003   */\ntag_3:\n    /* \"#utility.yul\":4534:4540   */\n  0x00\n    /* \"#utility.yul\":4583:4585   */\n  0x20\n    /* \"#utility.yul\":4571:4580   */\n  dup3\n    /* \"#utility.yul\":4562:4569   */\n  dup5\n    /* \"#utility.yul\":4558:4581   */\n  sub\n    /* \"#utility.yul\":4554:4586   */\n  slt\n    /* \"#utility.yul\":4551:4670   */\n  iszero\n  tag_113\n  jumpi\n    /* \"#utility.yul\":4589:4668   */\n  tag_114\n  tag_29\n  jump\t// in\ntag_114:\n    /* \"#utility.yul\":4551:4670   */\ntag_113:\n    /* \"#utility.yul\":4730:4731   */\n  0x00\n    /* \"#utility.yul\":4719:4728   */\n  dup3\n    /* \"#utility.yul\":4715:4732   */\n  add\n    /* \"#utility.yul\":4709:4733   */\n  mload\n    /* \"#utility.yul\":4760:4778   */\n  0xffffffffffffffff\n    /* \"#utility.yul\":4752:4758   */\n  dup2\n    /* \"#utility.yul\":4749:4779   */\n  gt\n    /* \"#utility.yul\":4746:4863   */\n  iszero\n  tag_115\n  jumpi\n    /* \"#utility.yul\":4782:4861   */\n  tag_116\n  tag_30\n  jump\t// in\ntag_116:\n    /* \"#utility.yul\":4746:4863   */\ntag_115:\n    /* \"#utility.yul\":4887:4986   */\n  tag_117\n    /* \"#utility.yul\":4978:4985   */\n  dup5\n    /* \"#utility.yul\":4969:4975   */\n  dup3\n    /* \"#utility.yul\":4958:4967   */\n  dup6\n    /* \"#utility.yul\":4954:4976   */\n  add\n    /* \"#utility.yul\":4887:4986   */\n  tag_44\n  jump\t// in\ntag_117:\n    /* \"#utility.yul\":4877:4986   */\n  swap2\n  pop\n    /* \"#utility.yul\":4680:4996   */\n  pop\n    /* \"#utility.yul\":4429:5003   */\n  swap3\n  swap2\n  pop\n  pop\n  jump\t// out\n    /* \"#utility.yul\":5009:5108   */\ntag_45:\n    /* \"#utility.yul\":5061:5067   */\n  0x00\n    /* \"#utility.yul\":5095:5100   */\n  dup2\n    /* \"#utility.yul\":5089:5101   */\n  mload\n    /* \"#utility.yul\":5079:5101   */\n  swap1\n  pop\n    /* \"#utility.yul\":5009:5108   */\n  swap2\n  swap1\n  pop\n  jump\t// out\n    /* \"#utility.yul\":5114:5294   */\ntag_46:\n    /* \"#utility.yul\":5162:5239   */\n  0x4e487b7100000000000000000000000000000000000000000000000000000000\n    /* \"#utility.yul\":5159:5160   */\n  0x00\n    /* \"#utility.yul\":5152:5240   */\n  mstore\n    /* \"#utility.yul\":5259:5263   */\n  0x22\n    /* \"#utility.yul\":5256:5257   */\n  0x04\n    /* \"#utility.yul\":5249:5264   */\n  mstore\n    /* \"#utility.yul\":5283:5287   */\n  0x24\n    /* \"#utility.yul\":5280:5281   */\n  0x00\n    /* \"#utility.yul\":5273:5288   */\n  revert\n    /* \"#utility.yul\":5300:5620   */\ntag_21:\n    /* \"#utility.yul\":5344:5350   */\n  0x00\n    /* \"#utility.yul\":5381:5382   */\n  0x02\n    /* \"#utility.yul\":5375:5379   */\n  dup3\n    /* \"#utility.yul\":5371:5383   */\n  div\n    /* \"#utility.yul\":5361:5383   */\n  swap1\n  pop\n    /* \"#utility.yul\":5428:5429   */\n  0x01\n    /* \"#utility.yul\":5422:5426   */\n  dup3\n    /* \"#utility.yul\":5418:5430   */\n  and\n    /* \"#utility.yul\":5449:5467   */\n  dup1\n    /* \"#utility.yul\":5439:5520   */\n  tag_121\n  jumpi\n    /* \"#utility.yul\":5505:5509   */\n  0x7f\n    /* \"#utility.yul\":5497:5503   */\n  dup3\n    /* \"#utility.yul\":5493:5510   */\n  and\n    /* \"#utility.yul\":5483:5510   */\n  swap2\n  pop\n    /* \"#utility.yul\":5439:5520   */\ntag_121:\n    /* \"#utility.yul\":5567:5569   */\n  0x20\n    /* \"#utility.yul\":5559:5565   */\n  dup3\n    /* \"#utility.yul\":5556:5570   */\n  lt\n    /* \"#utility.yul\":5536:5554   */\n  dup2\n    /* \"#utility.yul\":5533:5571   */\n  sub\n    /* \"#utility.yul\":5530:5614   */\n  tag_122\n  jumpi\n    /* \"#utility.yul\":5586:5604   */\n  tag_123\n  tag_46\n  jump\t// in\ntag_123:\n    /* \"#utility.yul\":5530:5614   */\ntag_122:\n    /* \"#utility.yul\":5351:5620   */\n  pop\n    /* \"#utility.yul\":5300:5620   */\n  swap2\n  swap1\n  pop\n  jump\t// out\n    /* \"#utility.yul\":5626:5767   */\ntag_47:\n    /* \"#utility.yul\":5675:5679   */\n  0x00\n    /* \"#utility.yul\":5698:5701   */\n  dup2\n    /* \"#utility.yul\":5690:5701   */\n  swap1\n  pop\n    /* \"#utility.yul\":5721:5724   */\n  dup2\n    /* \"#utility.yul\":5718:5719   */\n  0x00\n    /* \"#utility.yul\":5711:5725   */\n  mstore\n    /* \"#utility.yul\":5755:5759   */\n  0x20\n    /* \"#utility.yul\":5752:5753   */\n  0x00\n    /* \"#utility.yul\":5742:5760   */\n  keccak256\n    /* \"#utility.yul\":5734:5760   */\n  swap1\n  pop\n    /* \"#utility.yul\":5626:5767   */\n  swap2\n  swap1\n  pop\n  jump\t// out\n    /* \"#utility.yul\":5773:5866   */\ntag_48:\n    /* \"#utility.yul\":5810:5816   */\n  0x00\n    /* \"#utility.yul\":5857:5859   */\n  0x20\n    /* \"#utility.yul\":5852:5854   */\n  0x1f\n    /* \"#utility.yul\":5845:5850   */\n  dup4\n    /* \"#utility.yul\":5841:5855   */\n  add\n    /* \"#utility.yul\":5837:5860   */\n  div\n    /* \"#utility.yul\":5827:5860   */\n  swap1\n  pop\n    /* \"#utility.yul\":5773:5866   */\n  swap2\n  swap1\n  pop\n  jump\t// out\n    /* \"#utility.yul\":5872:5979   */\ntag_49:\n    /* \"#utility.yul\":5916:5924   */\n  0x00\n    /* \"#utility.yul\":5966:5971   */\n  dup3\n    /* \"#utility.yul\":5960:5964   */\n  dup3\n    /* \"#utility.yul\":5956:5972   */\n  shl\n    /* \"#utility.yul\":5935:5972   */\n  swap1\n  pop\n    /* \"#utility.yul\":5872:5979   */\n  swap3\n  swap2\n  pop\n  pop\n  jump\t// out\n    /* \"#utility.yul\":5985:6378   */\ntag_50:\n    /* \"#utility.yul\":6054:6060   */\n  0x00\n    /* \"#utility.yul\":6104:6105   */\n  0x08\n    /* \"#utility.yul\":6092:6102   */\n  dup4\n    /* \"#utility.yul\":6088:6106   */\n  mul\n    /* \"#utility.yul\":6127:6224   */\n  tag_128\n    /* \"#utility.yul\":6157:6223   */\n  0xffffffffffffffffffffffffffffffffffffffffffffffffffffffffffffffff\n    /* \"#utility.yul\":6146:6155   */\n  dup3\n    /* \"#utility.yul\":6127:6224   */\n  tag_49\n  jump\t// in\ntag_128:\n    /* \"#utility.yul\":6245:6284   */\n  tag_129\n    /* \"#utility.yul\":6275:6283   */\n  dup7\n    /* \"#utility.yul\":6264:6273   */\n  dup4\n    /* \"#utility.yul\":6245:6284   */\n  tag_49\n  jump\t// in\ntag_129:\n    /* \"#utility.yul\":6233:6284   */\n  swap6\n  pop\n    /* \"#utility.yul\":6317:6321   */\n  dup1\n    /* \"#utility.yul\":6313:6322   */\n  not\n    /* \"#utility.yul\":6306:6311   */\n  dup5\n    /* \"#utility.yul\":6302:6323   */\n  and\n    /* \"#utility.yul\":6293:6323   */\n  swap4\n  pop\n    /* \"#utility.yul\":6366:6370   */\n  dup1\n    /* \"#utility.yul\":6356:6364   */\n  dup7\n    /* \"#utility.yul\":6352:6371   */\n  and\n    /* \"#utility.yul\":6345:6350   */\n  dup5\n    /* \"#utility.yul\":6342:6372   */\n  or\n    /* \"#utility.yul\":6332:6372   */\n  swap3\n  pop\n    /* \"#utility.yul\":6061:6378   */\n  pop\n  pop\n    /* \"#utility.yul\":5985:6378   */\n  swap4\n  swap3\n  pop\n  pop\n  pop\n  jump\t// out\n    /* \"#utility.yul\":6384:6461   */\ntag_51:\n    /* \"#utility.yul\":6421:6428   */\n  0x00\n    /* \"#utility.yul\":6450:6455   */\n  dup2\n    /* \"#utility.yul\":6439:6455   */\n  swap1\n  pop\n    /* \"#utility.yul\":6384:6461   */\n  swap2\n  swap1\n  pop\n  jump\t// out\n    /* \"#utility.yul\":6467:6527   */\ntag_52:\n    /* \"#utility.yul\":6495:6498   */\n  0x00\n    /* \"#utility.yul\":6516:6521   */\n  dup2\n    /* \"#utility.yul\":6509:6521   */\n  swap1\n  pop\n    /* \"#utility.yul\":6467:6527   */\n  swap2\n  swap1\n  pop\n  jump\t// out\n    /* \"#utility.yul\":6533:6675   */\ntag_53:\n    /* \"#utility.yul\":6583:6592   */\n  0x00\n    /* \"#utility.yul\":6616:6669   */\n  tag_133\n    /* \"#utility.yul\":6634:6668   */\n  tag_134\n    /* \"#utility.yul\":6643:6667   */\n  tag_135\n    /* \"#utility.yul\":6661:6666   */\n  dup5\n    /* \"#utility.yul\":6643:6667   */\n  tag_51\n  jump\t// in\ntag_135:\n    /* \"#utility.yul\":6634:6668   */\n  tag_52\n  jump\t// in\ntag_134:\n    /* \"#utility.yul\":6616:6669   */\n  tag_51\n  jump\t// in\ntag_133:\n    /* \"#utility.yul\":6603:6669   */\n  swap1\n  pop\n    /* \"#utility.yul\":6533:6675   */\n  swap2\n  swap1\n  pop\n  jump\t// out\n    /* \"#utility.yul\":6681:6756   */\ntag_54:\n    /* \"#utility.yul\":6724:6727   */\n  0x00\n    /* \"#utility.yul\":6745:6750   */\n  dup2\n    /* \"#utility.yul\":6738:6750   */\n  swap1\n  pop\n    /* \"#utility.yul\":6681:6756   */\n  swap2\n  swap1\n  pop\n  jump\t// out\n    /* \"#utility.yul\":6762:7031   */\ntag_55:\n    /* \"#utility.yul\":6872:6911   */\n  tag_138\n    /* \"#utility.yul\":6903:6910   */\n  dup4\n    /* \"#utility.yul\":6872:6911   */\n  tag_53\n  jump\t// in\ntag_138:\n    /* \"#utility.yul\":6933:7024   */\n  tag_139\n    /* \"#utility.yul\":6982:7023   */\n  tag_140\n    /* \"#utility.yul\":7006:7022   */\n  dup3\n    /* \"#utility.yul\":6982:7023   */\n  tag_54\n  jump\t// in\ntag_140:\n    /* \"#utility.yul\":6974:6980   */\n  dup5\n    /* \"#utility.yul\":6967:6971   */\n  dup5\n    /* \"#utility.yul\":6961:6972   */\n  sload\n    /* \"#utility.yul\":6933:7024   */\n  tag_50\n  jump\t// in\ntag_139:\n    /* \"#utility.yul\":6927:6931   */\n  dup3\n    /* \"#utility.yul\":6920:7025   */\n  sstore\n    /* \"#utility.yul\":6838:7031   */\n  pop\n    /* \"#utility.yul\":6762:7031   */\n  pop\n  pop\n  pop\n  jump\t// out\n    /* \"#utility.yul\":7037:7110   */\ntag_56:\n    /* \"#utility.yul\":7082:7085   */\n  0x00\n    /* \"#utility.yul\":7037:7110   */\n  swap1\n  jump\t// out\n    /* \"#utility.yul\":7116:7305   */\ntag_57:\n    /* \"#utility.yul\":7193:7225   */\n  tag_143\n  tag_56\n  jump\t// in\ntag_143:\n    /* \"#utility.yul\":7234:7299   */\n  tag_144\n    /* \"#utility.yul\":7292:7298   */\n  dup2\n    /* \"#utility.yul\":7284:7290   */\n  dup5\n    /* \"#utility.yul\":7278:7282   */\n  dup5\n    /* \"#utility.yul\":7234:7299   */\n  tag_55\n  jump\t// in\ntag_144:\n    /* \"#utility.yul\":7169:7305   */\n  pop\n    /* \"#utility.yul\":7116:7305   */\n  pop\n  pop\n  jump\t// out\n    /* \"#utility.yul\":7311:7497   */\ntag_58:\n    /* \"#utility.yul\":7371:7491   */\ntag_146:\n    /* \"#utility.yul\":7388:7391   */\n  dup2\n    /* \"#utility.yul\":7381:7386   */\n  dup2\n    /* \"#utility.yul\":7378:7392   */\n  lt\n    /* \"#utility.yul\":7371:7491   */\n  iszero\n  tag_148\n  jumpi\n    /* \"#utility.yul\":7442:7481   */\n  tag_149\n    /* \"#utility.yul\":7479:7480   */\n  0x00\n    /* \"#utility.yul\":7472:7477   */\n  dup3\n    /* \"#utility.yul\":7442:7481   */\n  tag_57\n  jump\t// in\ntag_149:\n    /* \"#utility.yul\":7415:7416   */\n  0x01\n    /* \"#utility.yul\":7408:7413   */\n  dup2\n    /* \"#utility.yul\":7404:7417   */\n  add\n    /* \"#utility.yul\":7395:7417   */\n  swap1\n  pop\n    /* \"#utility.yul\":7371:7491   */\n  jump(tag_146)\ntag_148:\n    /* \"#utility.yul\":7311:7497   */\n  pop\n  pop\n  jump\t// out\n    /* \"#utility.yul\":7503:8046   */\ntag_59:\n    /* \"#utility.yul\":7604:7606   */\n  0x1f\n    /* \"#utility.yul\":7599:7602   */\n  dup3\n    /* \"#utility.yul\":7596:7607   */\n  gt\n    /* \"#utility.yul\":7593:8039   */\n  iszero\n  tag_151\n  jumpi\n    /* \"#utility.yul\":7638:7676   */\n  tag_152\n    /* \"#utility.yul\":7670:7675   */\n  dup2\n    /* \"#utility.yul\":7638:7676   */\n  tag_47\n  jump\t// in\ntag_152:\n    /* \"#utility.yul\":7722:7751   */\n  tag_153\n    /* \"#utility.yul\":7740:7750   */\n  dup5\n    /* \"#utility.yul\":7722:7751   */\n  tag_48\n  jump\t// in\ntag_153:\n    /* \"#utility.yul\":7712:7720   */\n  dup2\n    /* \"#utility.yul\":7708:7752   */\n  add\n    /* \"#utility.yul\":7905:7907   */\n  0x20\n    /* \"#utility.yul\":7893:7903   */\n  dup6\n    /* \"#utility.yul\":7890:7908   */\n  lt\n    /* \"#utility.yul\":7887:7936   */\n  iszero\n  tag_154\n  jumpi\n    /* \"#utility.yul\":7926:7934   */\n  dup2\n    /* \"#utility.yul\":7911:7934   */\n  swap1\n  pop\n    /* \"#utility.yul\":7887:7936   */\ntag_154:\n    /* \"#utility.yul\":7949:8029   */\n  tag_155\n    /* \"#utility.yul\":8005:8027   */\n  tag_156\n    /* \"#utility.yul\":8023:8026   */\n  dup6\n    /* \"#utility.yul\":8005:8027   */\n  tag_48\n  jump\t// in\ntag_156:\n    /* \"#utility.yul\":7995:8003   */\n  dup4\n    /* \"#utility.yul\":7991:8028   */\n  add\n    /* \"#utility.yul\":7978:7989   */\n  dup3\n    /* \"#utility.yul\":7949:8029   */\n  tag_58\n  jump\t// in\ntag_155:\n    /* \"#utility.yul\":7608:8039   */\n  pop\n  pop\n    /* \"#utility.yul\":7593:8039   */\ntag_151:\n    /* \"#utility.yul\":7503:8046   */\n  pop\n  pop\n  pop\n  jump\t// out\n    /* \"#utility.yul\":8052:8169   */\ntag_60:\n    /* \"#utility.yul\":8106:8114   */\n  0x00\n    /* \"#utility.yul\":8156:8161   */\n  dup3\n    /* \"#utility.yul\":8150:8154   */\n  dup3\n    /* \"#utility.yul\":8146:8162   */\n  shr\n    /* \"#utility.yul\":8125:8162   */\n  swap1\n  pop\n    /* \"#utility.yul\":8052:8169   */\n  swap3\n  swap2\n  pop\n  pop\n  jump\t// out\n    /* \"#utility.yul\":8175:8344   */\ntag_61:\n    /* \"#utility.yul\":8219:8225   */\n  0x00\n    /* \"#utility.yul\":8252:8303   */\n  tag_159\n    /* \"#utility.yul\":8300:8301   */\n  0x00\n    /* \"#utility.yul\":8296:8302   */\n  not\n    /* \"#utility.yul\":8288:8293   */\n  dup5\n    /* \"#utility.yul\":8285:8286   */\n  0x08\n    /* \"#utility.yul\":8281:8294   */\n  mul\n    /* \"#utility.yul\":8252:8303   */\n  tag_60\n  jump\t// in\ntag_159:\n    /* \"#utility.yul\":8248:8304   */\n  not\n    /* \"#utility.yul\":8333:8337   */\n  dup1\n    /* \"#utility.yul\":8327:8331   */\n  dup4\n    /* \"#utility.yul\":8323:8338   */\n  and\n    /* \"#utility.yul\":8313:8338   */\n  swap2\n  pop\n    /* \"#utility.yul\":8226:8344   */\n  pop\n    /* \"#utility.yul\":8175:8344   */\n  swap3\n  swap2\n  pop\n  pop\n  jump\t// out\n    /* \"#utility.yul\":8349:8644   */\ntag_62:\n    /* \"#utility.yul\":8425:8429   */\n  0x00\n    /* \"#utility.yul\":8571:8600   */\n  tag_161\n    /* \"#utility.yul\":8596:8599   */\n  dup4\n    /* \"#utility.yul\":8590:8594   */\n  dup4\n    /* \"#utility.yul\":8571:8600   */\n  tag_61\n  jump\t// in\ntag_161:\n    /* \"#utility.yul\":8563:8600   */\n  swap2\n  pop\n    /* \"#utility.yul\":8633:8636   */\n  dup3\n    /* \"#utility.yul\":8630:8631   */\n  0x02\n    /* \"#utility.yul\":8626:8637   */\n  mul\n    /* \"#utility.yul\":8620:8624   */\n  dup3\n    /* \"#utility.yul\":8617:8638   */\n  or\n    /* \"#utility.yul\":8609:8638   */\n  swap1\n  pop\n    /* \"#utility.yul\":8349:8644   */\n  swap3\n  swap2\n  pop\n  pop\n  jump\t// out\n    /* \"#utility.yul\":8649:10044   */\ntag_13:\n    /* \"#utility.yul\":8766:8803   */\n  tag_163\n    /* \"#utility.yul\":8799:8802   */\n  dup3\n    /* \"#utility.yul\":8766:8803   */\n  tag_45\n  jump\t// in\ntag_163:\n    /* \"#utility.yul\":8868:8886   */\n  0xffffffffffffffff\n    /* \"#utility.yul\":8860:8866   */\n  dup2\n    /* \"#utility.yul\":8857:8887   */\n  gt\n    /* \"#utility.yul\":8854:8910   */\n  iszero\n  tag_164\n  jumpi\n    /* \"#utility.yul\":8890:8908   */\n  tag_165\n  tag_33\n  jump\t// in\ntag_165:\n    /* \"#utility.yul\":8854:8910   */\ntag_164:\n    /* \"#utility.yul\":8934:8972   */\n  tag_166\n    /* \"#utility.yul\":8966:8970   */\n  dup3\n    /* \"#utility.yul\":8960:8971   */\n  sload\n    /* \"#utility.yul\":8934:8972   */\n  tag_21\n  jump\t// in\ntag_166:\n    /* \"#utility.yul\":9019:9086   */\n  tag_167\n    /* \"#utility.yul\":9079:9085   */\n  dup3\n    /* \"#utility.yul\":9071:9077   */\n  dup3\n    /* \"#utility.yul\":9065:9069   */\n  dup6\n    /* \"#utility.yul\":9019:9086   */\n  tag_59\n  jump\t// in\ntag_167:\n    /* \"#utility.yul\":9113:9114   */\n  0x00\n    /* \"#utility.yul\":9137:9141   */\n  0x20\n    /* \"#utility.yul\":9124:9141   */\n  swap1\n  pop\n    /* \"#utility.yul\":9169:9171   */\n  0x1f\n    /* \"#utility.yul\":9161:9167   */\n  dup4\n    /* \"#utility.yul\":9158:9172   */\n  gt\n    /* \"#utility.yul\":9186:9187   */\n  0x01\n    /* \"#utility.yul\":9181:9799   */\n  dup2\n  eq\n  tag_169\n  jumpi\n    /* \"#utility.yul\":9843:9844   */\n  0x00\n    /* \"#utility.yul\":9860:9866   */\n  dup5\n    /* \"#utility.yul\":9857:9934   */\n  iszero\n  tag_170\n  jumpi\n    /* \"#utility.yul\":9909:9918   */\n  dup3\n    /* \"#utility.yul\":9904:9907   */\n  dup8\n    /* \"#utility.yul\":9900:9919   */\n  add\n    /* \"#utility.yul\":9894:9920   */\n  mload\n    /* \"#utility.yul\":9885:9920   */\n  swap1\n  pop\n    /* \"#utility.yul\":9857:9934   */\ntag_170:\n    /* \"#utility.yul\":9960:10027   */\n  tag_171\n    /* \"#utility.yul\":10020:10026   */\n  dup6\n    /* \"#utility.yul\":10013:10018   */\n  dup3\n    /* \"#utility.yul\":9960:10027   */\n  tag_62\n  jump\t// in\ntag_171:\n    /* \"#utility.yul\":9954:9958   */\n  dup7\n    /* \"#utility.yul\":9947:10028   */\n  sstore\n    /* \"#utility.yul\":9816:10038   */\n  pop\n    /* \"#utility.yul\":9151:10038   */\n  jump(tag_168)\n    /* \"#utility.yul\":9181:9799   */\ntag_169:\n    /* \"#utility.yul\":9233:9237   */\n  0x1f\n    /* \"#utility.yul\":9229:9238   */\n  not\n    /* \"#utility.yul\":9221:9227   */\n  dup5\n    /* \"#utility.yul\":9217:9239   */\n  and\n    /* \"#utility.yul\":9267:9304   */\n  tag_172\n    /* \"#utility.yul\":9299:9303   */\n  dup7\n    /* \"#utility.yul\":9267:9304   */\n  tag_47\n  jump\t// in\ntag_172:\n    /* \"#utility.yul\":9326:9327   */\n  0x00\n    /* \"#utility.yul\":9340:9548   */\ntag_173:\n    /* \"#utility.yul\":9354:9361   */\n  dup3\n    /* \"#utility.yul\":9351:9352   */\n  dup2\n    /* \"#utility.yul\":9348:9362   */\n  lt\n    /* \"#utility.yul\":9340:9548   */\n  iszero\n  tag_175\n  jumpi\n    /* \"#utility.yul\":9433:9442   */\n  dup5\n    /* \"#utility.yul\":9428:9431   */\n  dup10\n    /* \"#utility.yul\":9424:9443   */\n  add\n    /* \"#utility.yul\":9418:9444   */\n  mload\n    /* \"#utility.yul\":9410:9416   */\n  dup3\n    /* \"#utility.yul\":9403:9445   */\n  sstore\n    /* \"#utility.yul\":9484:9485   */\n  0x01\n    /* \"#utility.yul\":9476:9482   */\n  dup3\n    /* \"#utility.yul\":9472:9486   */\n  add\n    /* \"#utility.yul\":9462:9486   */\n  swap2\n  pop\n    /* \"#utility.yul\":9531:9533   */\n  0x20\n    /* \"#utility.yul\":9520:9529   */\n  dup6\n    /* \"#utility.yul\":9516:9534   */\n  add\n    /* \"#utility.yul\":9503:9534   */\n  swap5\n  pop\n    /* \"#utility.yul\":9377:9381   */\n  0x20\n    /* \"#utility.yul\":9374:9375   */\n  dup2\n    /* \"#utility.yul\":9370:9382   */\n  add\n    /* \"#utility.yul\":9365:9382   */\n  swap1\n  pop\n    /* \"#utility.yul\":9340:9548   */\n  jump(tag_173)\ntag_175:\n    /* \"#utility.yul\":9576:9582   */\n  dup7\n    /* \"#utility.yul\":9567:9574   */\n  dup4\n    /* \"#utility.yul\":9564:9583   */\n  lt\n    /* \"#utility.yul\":9561:9740   */\n  iszero\n  tag_176\n  jumpi\n    /* \"#utility.yul\":9634:9643   */\n  dup5\n    /* \"#utility.yul\":9629:9632   */\n  dup10\n    /* \"#utility.yul\":9625:9644   */\n  add\n    /* \"#utility.yul\":9619:9645   */\n  mload\n    /* \"#utility.yul\":9677:9725   */\n  tag_177\n    /* \"#utility.yul\":9719:9723   */\n  0x1f\n    /* \"#utility.yul\":9711:9717   */\n  dup10\n    /* \"#utility.yul\":9707:9724   */\n  and\n    /* \"#utility.yul\":9696:9705   */\n  dup3\n    /* \"#utility.yul\":9677:9725   */\n  tag_61\n  jump\t// in\ntag_177:\n    /* \"#utility.yul\":9669:9675   */\n  dup4\n    /* \"#utility.yul\":9662:9726   */\n  sstore\n    /* \"#utility.yul\":9584:9740   */\n  pop\n    /* \"#utility.yul\":9561:9740   */\ntag_176:\n    /* \"#utility.yul\":9786:9787   */\n  0x01\n    /* \"#utility.yul\":9782:9783   */\n  0x02\n    /* \"#utility.yul\":9774:9780   */\n  dup9\n    /* \"#utility.yul\":9770:9784   */\n  mul\n    /* \"#utility.yul\":9766:9788   */\n  add\n    /* \"#utility.yul\":9760:9764   */\n  dup9\n    /* \"#utility.yul\":9753:9789   */\n  sstore\n    /* \"#utility.yul\":9188:9799   */\n  pop\n  pop\n  pop\n    /* \"#utility.yul\":9151:10038   */\ntag_168:\n  pop\n    /* \"#utility.yul\":8741:10044   */\n  pop\n  pop\n  pop\n    /* \"#utility.yul\":8649:10044   */\n  pop\n  pop\n  jump\t// out\n    /* \"contracts/DIOVoting.sol\":35:942  contract DIOVoting {... */\ntag_8:\n  dataSize(sub_0)\n  dup1\n  dataOffset(sub_0)\n  0x00\n  codecopy\n  0x00\n  return\nstop\n\nsub_0: assembly {\n        /* \"contracts/DIOVoting.sol\":35:942  contract DIOVoting {... */\n      mstore(0x40, 0x80)\n      callvalue\n      dup1\n      iszero\n      tag_1\n      jumpi\n      0x00\n      dup1\n      revert\n    tag_1:\n      pop\n      jumpi(tag_2, lt(calldatasize, 0x04))\n      shr(0xe0, calldataload(0x00))\n      dup1\n      0x4a3bf377\n      eq\n      tag_3\n      jumpi\n      dup1\n      0x538c91b2\n      eq\n      tag_4\n      jumpi\n      dup1\n      0x8d4b44d9\n      eq\n      tag_5\n      jumpi\n      dup1\n      0xb13c744b\n      eq\n      tag_6\n      jumpi\n      dup1\n      0xe89927ef\n      eq\n      tag_7\n      jumpi\n    tag_2:\n      0x00\n      dup1\n      revert\n        /* \"contracts/DIOVoting.sol\":259:437  function totalVotesFor(string memory candidate) view public returns (uint256){... */\n    tag_3:\n      tag_8\n      0x04\n      dup1\n      calldatasize\n      sub\n      dup2\n      add\n      swap1\n      tag_9\n      swap2\n      swap1\n      tag_10\n      jump\t// in\n    tag_9:\n      tag_11\n      jump\t// in\n    tag_8:\n      mload(0x40)\n      tag_12\n      swap2\n      swap1\n      tag_13\n      jump\t// in\n    tag_12:\n      mload(0x40)\n      dup1\n      swap2\n      sub\n      swap1\n      return\n        /* \"contracts/DIOVoting.sol\":605:939  function validCandidate(string memory candidate) view public returns (bool){... */\n    tag_4:\n      tag_14\n      0x04\n      dup1\n      calldatasize\n      sub\n      dup2\n      add\n      swap1\n      tag_15\n      swap2\n      swap1\n      tag_10\n      jump\t// in\n    tag_15:\n      tag_16\n      jump\t// in\n    tag_14:\n      mload(0x40)\n      tag_17\n      swap2\n      swap1\n      tag_18\n      jump\t// in\n    tag_17:\n      mload(0x40)\n      dup1\n      swap2\n      sub\n      swap1\n      return\n        /* \"contracts/DIOVoting.sol\":63:111  mapping (string => uint256) public votesReceived */\n    tag_5:\n      tag_19\n      0x04\n      dup1\n      calldatasize\n      sub\n      dup2\n      add\n      swap1\n      tag_20\n      swap2\n      swap1\n      tag_10\n      jump\t// in\n    tag_20:\n      tag_21\n      jump\t// in\n    tag_19:\n      mload(0x40)\n      tag_22\n      swap2\n      swap1\n      tag_13\n      jump\t// in\n    tag_22:\n      mload(0x40)\n      dup1\n      swap2\n      sub\n      swap1\n      return\n        /* \"contracts/DIOVoting.sol\":120:149  string[] public candidateList */\n    tag_6:\n      tag_23\n      0x04\n      dup1\n      calldatasize\n      sub\n      dup2\n      add\n      swap1\n      tag_24\n      swap2\n      swap1\n      tag_25\n      jump\t// in\n    tag_24:\n      tag_26\n      jump\t// in\n    tag_23:\n      mload(0x40)\n      tag_27\n      swap2\n      swap1\n      tag_28\n      jump\t// in\n    tag_27:\n      mload(0x40)\n      dup1\n      swap2\n      sub\n      swap1\n      return\n        /* \"contracts/DIOVoting.sol\":445:597  function voteForCandidate (string memory candidate) public {... */\n    tag_7:\n      tag_29\n      0x04\n      dup1\n      calldatasize\n      sub\n      dup2\n      add\n      swap1\n      tag_30\n      swap2\n      swap1\n      tag_10\n      jump\t// in\n    tag_30:\n      tag_31\n      jump\t// in\n    tag_29:\n      stop\n        /* \"contracts/DIOVoting.sol\":259:437  function totalVotesFor(string memory candidate) view public returns (uint256){... */\n    tag_11:\n        /* \"contracts/DIOVoting.sol\":328:335  uint256 */\n      0x00\n        /* \"contracts/DIOVoting.sol\":357:382  validCandidate(candidate) */\n      tag_33\n        /* \"contracts/DIOVoting.sol\":372:381  candidate */\n      dup3\n        /* \"contracts/DIOVoting.sol\":357:371  validCandidate */\n      tag_16\n        /* \"contracts/DIOVoting.sol\":357:382  validCandidate(candidate) */\n      jump\t// in\n    tag_33:\n        /* \"contracts/DIOVoting.sol\":349:383  require(validCandidate(candidate)) */\n      tag_34\n      jumpi\n      0x00\n      dup1\n      revert\n    tag_34:\n        /* \"contracts/DIOVoting.sol\":403:416  votesReceived */\n      0x00\n        /* \"contracts/DIOVoting.sol\":417:426  candidate */\n      dup3\n        /* \"contracts/DIOVoting.sol\":403:427  votesReceived[candidate] */\n      mload(0x40)\n      tag_35\n      swap2\n      swap1\n      tag_36\n      jump\t// in\n    tag_35:\n      swap1\n      dup2\n      mstore\n      0x20\n      add\n      mload(0x40)\n      dup1\n      swap2\n      sub\n      swap1\n      keccak256\n      sload\n        /* \"contracts/DIOVoting.sol\":396:427  return votesReceived[candidate] */\n      swap1\n      pop\n        /* \"contracts/DIOVoting.sol\":259:437  function totalVotesFor(string memory candidate) view public returns (uint256){... */\n      swap2\n      swap1\n      pop\n      jump\t// out\n        /* \"contracts/DIOVoting.sol\":605:939  function validCandidate(string memory candidate) view public returns (bool){... */\n    tag_16:\n        /* \"contracts/DIOVoting.sol\":675:679  bool */\n      0x00\n        /* \"contracts/DIOVoting.sol\":697:703  uint i */\n      dup1\n        /* \"contracts/DIOVoting.sol\":706:707  0 */\n      0x00\n        /* \"contracts/DIOVoting.sol\":697:707  uint i = 0 */\n      swap1\n      pop\n        /* \"contracts/DIOVoting.sol\":693:907  for(uint i = 0; i < candidateList.length; i++){... */\n    tag_38:\n        /* \"contracts/DIOVoting.sol\":713:726  candidateList */\n      0x01\n        /* \"contracts/DIOVoting.sol\":713:733  candidateList.length */\n      dup1\n      sload\n      swap1\n      pop\n        /* \"contracts/DIOVoting.sol\":709:710  i */\n      dup2\n        /* \"contracts/DIOVoting.sol\":709:733  i < candidateList.length */\n      lt\n        /* \"contracts/DIOVoting.sol\":693:907  for(uint i = 0; i < candidateList.length; i++){... */\n      iszero\n      tag_39\n      jumpi\n        /* \"contracts/DIOVoting.sol\":836:845  candidate */\n      dup3\n        /* \"contracts/DIOVoting.sol\":819:846  abi.encodePacked(candidate) */\n      add(0x20, mload(0x40))\n      tag_41\n      swap2\n      swap1\n      tag_36\n      jump\t// in\n    tag_41:\n      mload(0x40)\n      0x20\n      dup2\n      dup4\n      sub\n      sub\n      dup2\n      mstore\n      swap1\n      0x40\n      mstore\n        /* \"contracts/DIOVoting.sol\":809:847  keccak256(abi.encodePacked(candidate)) */\n      dup1\n      mload\n      swap1\n      0x20\n      add\n      keccak256\n        /* \"contracts/DIOVoting.sol\":787:800  candidateList */\n      0x01\n        /* \"contracts/DIOVoting.sol\":801:802  i */\n      dup3\n        /* \"contracts/DIOVoting.sol\":787:803  candidateList[i] */\n      dup2\n      sload\n      dup2\n      lt\n      tag_42\n      jumpi\n      tag_43\n      tag_44\n      jump\t// in\n    tag_43:\n    tag_42:\n      swap1\n      0x00\n      mstore\n      keccak256(0x00, 0x20)\n      add\n        /* \"contracts/DIOVoting.sol\":770:804  abi.encodePacked(candidateList[i]) */\n      add(0x20, mload(0x40))\n      tag_46\n      swap2\n      swap1\n      tag_47\n      jump\t// in\n    tag_46:\n      mload(0x40)\n      0x20\n      dup2\n      dup4\n      sub\n      sub\n      dup2\n      mstore\n      swap1\n      0x40\n      mstore\n        /* \"contracts/DIOVoting.sol\":760:805  keccak256(abi.encodePacked(candidateList[i])) */\n      dup1\n      mload\n      swap1\n      0x20\n      add\n      keccak256\n        /* \"contracts/DIOVoting.sol\":760:847  keccak256(abi.encodePacked(candidateList[i])) == keccak256(abi.encodePacked(candidate)) */\n      sub\n        /* \"contracts/DIOVoting.sol\":756:896  if (keccak256(abi.encodePacked(candidateList[i])) == keccak256(abi.encodePacked(candidate))) {... */\n      tag_48\n      jumpi\n        /* \"contracts/DIOVoting.sol\":876:880  true */\n      0x01\n        /* \"contracts/DIOVoting.sol\":868:880  return  true */\n      swap2\n      pop\n      pop\n      jump(tag_37)\n        /* \"contracts/DIOVoting.sol\":756:896  if (keccak256(abi.encodePacked(candidateList[i])) == keccak256(abi.encodePacked(candidate))) {... */\n    tag_48:\n        /* \"contracts/DIOVoting.sol\":735:738  i++ */\n      dup1\n      dup1\n      0x01\n      add\n      swap2\n      pop\n      pop\n        /* \"contracts/DIOVoting.sol\":693:907  for(uint i = 0; i < candidateList.length; i++){... */\n      jump(tag_38)\n    tag_39:\n      pop\n        /* \"contracts/DIOVoting.sol\":924:929  false */\n      0x00\n        /* \"contracts/DIOVoting.sol\":917:929  return false */\n      swap1\n      pop\n        /* \"contracts/DIOVoting.sol\":605:939  function validCandidate(string memory candidate) view public returns (bool){... */\n    tag_37:\n      swap2\n      swap1\n      pop\n      jump\t// out\n        /* \"contracts/DIOVoting.sol\":63:111  mapping (string => uint256) public votesReceived */\n    tag_21:\n      0x00\n      dup2\n      dup1\n      mload\n      0x20\n      dup2\n      add\n      dup3\n      add\n      dup1\n      mload\n      dup5\n      dup3\n      mstore\n      0x20\n      dup4\n      add\n      0x20\n      dup6\n      add\n      keccak256\n      dup2\n      dup4\n      mstore\n      dup1\n      swap6\n      pop\n      pop\n      pop\n      pop\n      pop\n      pop\n      0x00\n      swap2\n      pop\n      swap1\n      pop\n      sload\n      dup2\n      jump\t// out\n        /* \"contracts/DIOVoting.sol\":120:149  string[] public candidateList */\n    tag_26:\n      0x01\n      dup2\n      dup2\n      sload\n      dup2\n      lt\n      tag_49\n      jumpi\n      0x00\n      dup1\n      revert\n    tag_49:\n      swap1\n      0x00\n      mstore\n      keccak256(0x00, 0x20)\n      add\n      0x00\n      swap2\n      pop\n      swap1\n      pop\n      dup1\n      sload\n      tag_51\n      swap1\n      tag_52\n      jump\t// in\n    tag_51:\n      dup1\n      0x1f\n      add\n      0x20\n      dup1\n      swap2\n      div\n      mul\n      0x20\n      add\n      mload(0x40)\n      swap1\n      dup2\n      add\n      0x40\n      mstore\n      dup1\n      swap3\n      swap2\n      swap1\n      dup2\n      dup2\n      mstore\n      0x20\n      add\n      dup3\n      dup1\n      sload\n      tag_53\n      swap1\n      tag_52\n      jump\t// in\n    tag_53:\n      dup1\n      iszero\n      tag_54\n      jumpi\n      dup1\n      0x1f\n      lt\n      tag_55\n      jumpi\n      0x0100\n      dup1\n      dup4\n      sload\n      div\n      mul\n      dup4\n      mstore\n      swap2\n      0x20\n      add\n      swap2\n      jump(tag_54)\n    tag_55:\n      dup3\n      add\n      swap2\n      swap1\n      0x00\n      mstore\n      keccak256(0x00, 0x20)\n      swap1\n    tag_56:\n      dup2\n      sload\n      dup2\n      mstore\n      swap1\n      0x01\n      add\n      swap1\n      0x20\n      add\n      dup1\n      dup4\n      gt\n      tag_56\n      jumpi\n      dup3\n      swap1\n      sub\n      0x1f\n      and\n      dup3\n      add\n      swap2\n    tag_54:\n      pop\n      pop\n      pop\n      pop\n      pop\n      dup2\n      jump\t// out\n        /* \"contracts/DIOVoting.sol\":445:597  function voteForCandidate (string memory candidate) public {... */\n    tag_31:\n        /* \"contracts/DIOVoting.sol\":523:548  validCandidate(candidate) */\n      tag_58\n        /* \"contracts/DIOVoting.sol\":538:547  candidate */\n      dup2\n        /* \"contracts/DIOVoting.sol\":523:537  validCandidate */\n      tag_16\n        /* \"contracts/DIOVoting.sol\":523:548  validCandidate(candidate) */\n      jump\t// in\n    tag_58:\n        /* \"contracts/DIOVoting.sol\":515:549  require(validCandidate(candidate)) */\n      tag_59\n      jumpi\n      0x00\n      dup1\n      revert\n    tag_59:\n        /* \"contracts/DIOVoting.sol\":588:589  1 */\n      0x01\n        /* \"contracts/DIOVoting.sol\":560:573  votesReceived */\n      0x00\n        /* \"contracts/DIOVoting.sol\":574:583  candidate */\n      dup3\n        /* \"contracts/DIOVoting.sol\":560:584  votesReceived[candidate] */\n      mload(0x40)\n      tag_60\n      swap2\n      swap1\n      tag_36\n      jump\t// in\n    tag_60:\n      swap1\n      dup2\n      mstore\n      0x20\n      add\n      mload(0x40)\n      dup1\n      swap2\n      sub\n      swap1\n      keccak256\n      0x00\n        /* \"contracts/DIOVoting.sol\":560:589  votesReceived[candidate] += 1 */\n      dup3\n      dup3\n      sload\n      tag_61\n      swap2\n      swap1\n      tag_62\n      jump\t// in\n    tag_61:\n      swap3\n      pop\n      pop\n      dup2\n      swap1\n      sstore\n      pop\n        /* \"contracts/DIOVoting.sol\":445:597  function voteForCandidate (string memory candidate) public {... */\n      pop\n      jump\t// out\n        /* \"#utility.yul\":7:82   */\n    tag_63:\n        /* \"#utility.yul\":40:46   */\n      0x00\n        /* \"#utility.yul\":73:75   */\n      0x40\n        /* \"#utility.yul\":67:76   */\n      mload\n        /* \"#utility.yul\":57:76   */\n      swap1\n      pop\n        /* \"#utility.yul\":7:82   */\n      swap1\n      jump\t// out\n        /* \"#utility.yul\":88:205   */\n    tag_64:\n        /* \"#utility.yul\":197:198   */\n      0x00\n        /* \"#utility.yul\":194:195   */\n      dup1\n        /* \"#utility.yul\":187:199   */\n      revert\n        /* \"#utility.yul\":211:328   */\n    tag_65:\n        /* \"#utility.yul\":320:321   */\n      0x00\n        /* \"#utility.yul\":317:318   */\n      dup1\n        /* \"#utility.yul\":310:322   */\n      revert\n        /* \"#utility.yul\":334:451   */\n    tag_66:\n        /* \"#utility.yul\":443:444   */\n      0x00\n        /* \"#utility.yul\":440:441   */\n      dup1\n        /* \"#utility.yul\":433:445   */\n      revert\n        /* \"#utility.yul\":457:574   */\n    tag_67:\n        /* \"#utility.yul\":566:567   */\n      0x00\n        /* \"#utility.yul\":563:564   */\n      dup1\n        /* \"#utility.yul\":556:568   */\n      revert\n        /* \"#utility.yul\":580:682   */\n    tag_68:\n        /* \"#utility.yul\":621:627   */\n      0x00\n        /* \"#utility.yul\":672:674   */\n      0x1f\n        /* \"#utility.yul\":668:675   */\n      not\n        /* \"#utility.yul\":663:665   */\n      0x1f\n        /* \"#utility.yul\":656:661   */\n      dup4\n        /* \"#utility.yul\":652:666   */\n      add\n        /* \"#utility.yul\":648:676   */\n      and\n        /* \"#utility.yul\":638:676   */\n      swap1\n      pop\n        /* \"#utility.yul\":580:682   */\n      swap2\n      swap1\n      pop\n      jump\t// out\n        /* \"#utility.yul\":688:868   */\n    tag_69:\n        /* \"#utility.yul\":736:813   */\n      0x4e487b7100000000000000000000000000000000000000000000000000000000\n        /* \"#utility.yul\":733:734   */\n      0x00\n        /* \"#utility.yul\":726:814   */\n      mstore\n        /* \"#utility.yul\":833:837   */\n      0x41\n        /* \"#utility.yul\":830:831   */\n      0x04\n        /* \"#utility.yul\":823:838   */\n      mstore\n        /* \"#utility.yul\":857:861   */\n      0x24\n        /* \"#utility.yul\":854:855   */\n      0x00\n        /* \"#utility.yul\":847:862   */\n      revert\n        /* \"#utility.yul\":874:1155   */\n    tag_70:\n        /* \"#utility.yul\":957:984   */\n      tag_101\n        /* \"#utility.yul\":979:983   */\n      dup3\n        /* \"#utility.yul\":957:984   */\n      tag_68\n      jump\t// in\n    tag_101:\n        /* \"#utility.yul\":949:955   */\n      dup2\n        /* \"#utility.yul\":945:985   */\n      add\n        /* \"#utility.yul\":1087:1093   */\n      dup2\n        /* \"#utility.yul\":1075:1085   */\n      dup2\n        /* \"#utility.yul\":1072:1094   */\n      lt\n        /* \"#utility.yul\":1051:1069   */\n      0xffffffffffffffff\n        /* \"#utility.yul\":1039:1049   */\n      dup3\n        /* \"#utility.yul\":1036:1070   */\n      gt\n        /* \"#utility.yul\":1033:1095   */\n      or\n        /* \"#utility.yul\":1030:1118   */\n      iszero\n      tag_102\n      jumpi\n        /* \"#utility.yul\":1098:1116   */\n      tag_103\n      tag_69\n      jump\t// in\n    tag_103:\n        /* \"#utility.yul\":1030:1118   */\n    tag_102:\n        /* \"#utility.yul\":1138:1148   */\n      dup1\n        /* \"#utility.yul\":1134:1136   */\n      0x40\n        /* \"#utility.yul\":1127:1149   */\n      mstore\n        /* \"#utility.yul\":917:1155   */\n      pop\n        /* \"#utility.yul\":874:1155   */\n      pop\n      pop\n      jump\t// out\n        /* \"#utility.yul\":1161:1290   */\n    tag_71:\n        /* \"#utility.yul\":1195:1201   */\n      0x00\n        /* \"#utility.yul\":1222:1242   */\n      tag_105\n      tag_63\n      jump\t// in\n    tag_105:\n        /* \"#utility.yul\":1212:1242   */\n      swap1\n      pop\n        /* \"#utility.yul\":1251:1284   */\n      tag_106\n        /* \"#utility.yul\":1279:1283   */\n      dup3\n        /* \"#utility.yul\":1271:1277   */\n      dup3\n        /* \"#utility.yul\":1251:1284   */\n      tag_70\n      jump\t// in\n    tag_106:\n        /* \"#utility.yul\":1161:1290   */\n      swap2\n      swap1\n      pop\n      jump\t// out\n        /* \"#utility.yul\":1296:1604   */\n    tag_72:\n        /* \"#utility.yul\":1358:1362   */\n      0x00\n        /* \"#utility.yul\":1448:1466   */\n      0xffffffffffffffff\n        /* \"#utility.yul\":1440:1446   */\n      dup3\n        /* \"#utility.yul\":1437:1467   */\n      gt\n        /* \"#utility.yul\":1434:1490   */\n      iszero\n      tag_108\n      jumpi\n        /* \"#utility.yul\":1470:1488   */\n      tag_109\n      tag_69\n      jump\t// in\n    tag_109:\n        /* \"#utility.yul\":1434:1490   */\n    tag_108:\n        /* \"#utility.yul\":1508:1537   */\n      tag_110\n        /* \"#utility.yul\":1530:1536   */\n      dup3\n        /* \"#utility.yul\":1508:1537   */\n      tag_68\n      jump\t// in\n    tag_110:\n        /* \"#utility.yul\":1500:1537   */\n      swap1\n      pop\n        /* \"#utility.yul\":1592:1596   */\n      0x20\n        /* \"#utility.yul\":1586:1590   */\n      dup2\n        /* \"#utility.yul\":1582:1597   */\n      add\n        /* \"#utility.yul\":1574:1597   */\n      swap1\n      pop\n        /* \"#utility.yul\":1296:1604   */\n      swap2\n      swap1\n      pop\n      jump\t// out\n        /* \"#utility.yul\":1610:1758   */\n    tag_73:\n        /* \"#utility.yul\":1708:1714   */\n      dup3\n        /* \"#utility.yul\":1703:1706   */\n      dup2\n        /* \"#utility.yul\":1698:1701   */\n      dup4\n        /* \"#utility.yul\":1685:1715   */\n      calldatacopy\n        /* \"#utility.yul\":1749:1750   */\n      0x00\n        /* \"#utility.yul\":1740:1746   */\n      dup4\n        /* \"#utility.yul\":1735:1738   */\n      dup4\n        /* \"#utility.yul\":1731:1747   */\n      add\n        /* \"#utility.yul\":1724:1751   */\n      mstore\n        /* \"#utility.yul\":1610:1758   */\n      pop\n      pop\n      pop\n      jump\t// out\n        /* \"#utility.yul\":1764:2189   */\n    tag_74:\n        /* \"#utility.yul\":1842:1847   */\n      0x00\n        /* \"#utility.yul\":1867:1933   */\n      tag_113\n        /* \"#utility.yul\":1883:1932   */\n      tag_114\n        /* \"#utility.yul\":1925:1931   */\n      dup5\n        /* \"#utility.yul\":1883:1932   */\n      tag_72\n      jump\t// in\n    tag_114:\n        /* \"#utility.yul\":1867:1933   */\n      tag_71\n      jump\t// in\n    tag_113:\n        /* \"#utility.yul\":1858:1933   */\n      swap1\n      pop\n        /* \"#utility.yul\":1956:1962   */\n      dup3\n        /* \"#utility.yul\":1949:1954   */\n      dup2\n        /* \"#utility.yul\":1942:1963   */\n      mstore\n        /* \"#utility.yul\":1994:1998   */\n      0x20\n        /* \"#utility.yul\":1987:1992   */\n      dup2\n        /* \"#utility.yul\":1983:1999   */\n      add\n        /* \"#utility.yul\":2032:2035   */\n      dup5\n        /* \"#utility.yul\":2023:2029   */\n      dup5\n        /* \"#utility.yul\":2018:2021   */\n      dup5\n        /* \"#utility.yul\":2014:2030   */\n      add\n        /* \"#utility.yul\":2011:2036   */\n      gt\n        /* \"#utility.yul\":2008:2120   */\n      iszero\n      tag_115\n      jumpi\n        /* \"#utility.yul\":2039:2118   */\n      tag_116\n      tag_67\n      jump\t// in\n    tag_116:\n        /* \"#utility.yul\":2008:2120   */\n    tag_115:\n        /* \"#utility.yul\":2129:2183   */\n      tag_117\n        /* \"#utility.yul\":2176:2182   */\n      dup5\n        /* \"#utility.yul\":2171:2174   */\n      dup3\n        /* \"#utility.yul\":2166:2169   */\n      dup6\n        /* \"#utility.yul\":2129:2183   */\n      tag_73\n      jump\t// in\n    tag_117:\n        /* \"#utility.yul\":1848:2189   */\n      pop\n        /* \"#utility.yul\":1764:2189   */\n      swap4\n      swap3\n      pop\n      pop\n      pop\n      jump\t// out\n        /* \"#utility.yul\":2209:2549   */\n    tag_75:\n        /* \"#utility.yul\":2265:2270   */\n      0x00\n        /* \"#utility.yul\":2314:2317   */\n      dup3\n        /* \"#utility.yul\":2307:2311   */\n      0x1f\n        /* \"#utility.yul\":2299:2305   */\n      dup4\n        /* \"#utility.yul\":2295:2312   */\n      add\n        /* \"#utility.yul\":2291:2318   */\n      slt\n        /* \"#utility.yul\":2281:2403   */\n      tag_119\n      jumpi\n        /* \"#utility.yul\":2322:2401   */\n      tag_120\n      tag_66\n      jump\t// in\n    tag_120:\n        /* \"#utility.yul\":2281:2403   */\n    tag_119:\n        /* \"#utility.yul\":2439:2445   */\n      dup2\n        /* \"#utility.yul\":2426:2446   */\n      calldataload\n        /* \"#utility.yul\":2464:2543   */\n      tag_121\n        /* \"#utility.yul\":2539:2542   */\n      dup5\n        /* \"#utility.yul\":2531:2537   */\n      dup3\n        /* \"#utility.yul\":2524:2528   */\n      0x20\n        /* \"#utility.yul\":2516:2522   */\n      dup7\n        /* \"#utility.yul\":2512:2529   */\n      add\n        /* \"#utility.yul\":2464:2543   */\n      tag_74\n      jump\t// in\n    tag_121:\n        /* \"#utility.yul\":2455:2543   */\n      swap2\n      pop\n        /* \"#utility.yul\":2271:2549   */\n      pop\n        /* \"#utility.yul\":2209:2549   */\n      swap3\n      swap2\n      pop\n      pop\n      jump\t// out\n        /* \"#utility.yul\":2555:3064   */\n    tag_10:\n        /* \"#utility.yul\":2624:2630   */\n      0x00\n        /* \"#utility.yul\":2673:2675   */\n      0x20\n        /* \"#utility.yul\":2661:2670   */\n      dup3\n        /* \"#utility.yul\":2652:2659   */\n      dup5\n        /* \"#utility.yul\":2648:2671   */\n      sub\n        /* \"#utility.yul\":2644:2676   */\n      slt\n        /* \"#utility.yul\":2641:2760   */\n      iszero\n      tag_123\n      jumpi\n        /* \"#utility.yul\":2679:2758   */\n      tag_124\n      tag_64\n      jump\t// in\n    tag_124:\n        /* \"#utility.yul\":2641:2760   */\n    tag_123:\n        /* \"#utility.yul\":2827:2828   */\n      0x00\n        /* \"#utility.yul\":2816:2825   */\n      dup3\n        /* \"#utility.yul\":2812:2829   */\n      add\n        /* \"#utility.yul\":2799:2830   */\n      calldataload\n        /* \"#utility.yul\":2857:2875   */\n      0xffffffffffffffff\n        /* \"#utility.yul\":2849:2855   */\n      dup2\n        /* \"#utility.yul\":2846:2876   */\n      gt\n        /* \"#utility.yul\":2843:2960   */\n      iszero\n      tag_125\n      jumpi\n        /* \"#utility.yul\":2879:2958   */\n      tag_126\n      tag_65\n      jump\t// in\n    tag_126:\n        /* \"#utility.yul\":2843:2960   */\n    tag_125:\n        /* \"#utility.yul\":2984:3047   */\n      tag_127\n        /* \"#utility.yul\":3039:3046   */\n      dup5\n        /* \"#utility.yul\":3030:3036   */\n      dup3\n        /* \"#utility.yul\":3019:3028   */\n      dup6\n        /* \"#utility.yul\":3015:3037   */\n      add\n        /* \"#utility.yul\":2984:3047   */\n      tag_75\n      jump\t// in\n    tag_127:\n        /* \"#utility.yul\":2974:3047   */\n      swap2\n      pop\n        /* \"#utility.yul\":2770:3057   */\n      pop\n        /* \"#utility.yul\":2555:3064   */\n      swap3\n      swap2\n      pop\n      pop\n      jump\t// out\n        /* \"#utility.yul\":3070:3147   */\n    tag_76:\n        /* \"#utility.yul\":3107:3114   */\n      0x00\n        /* \"#utility.yul\":3136:3141   */\n      dup2\n        /* \"#utility.yul\":3125:3141   */\n      swap1\n      pop\n        /* \"#utility.yul\":3070:3147   */\n      swap2\n      swap1\n      pop\n      jump\t// out\n        /* \"#utility.yul\":3153:3271   */\n    tag_77:\n        /* \"#utility.yul\":3240:3264   */\n      tag_130\n        /* \"#utility.yul\":3258:3263   */\n      dup2\n        /* \"#utility.yul\":3240:3264   */\n      tag_76\n      jump\t// in\n    tag_130:\n        /* \"#utility.yul\":3235:3238   */\n      dup3\n        /* \"#utility.yul\":3228:3265   */\n      mstore\n        /* \"#utility.yul\":3153:3271   */\n      pop\n      pop\n      jump\t// out\n        /* \"#utility.yul\":3277:3499   */\n    tag_13:\n        /* \"#utility.yul\":3370:3374   */\n      0x00\n        /* \"#utility.yul\":3408:3410   */\n      0x20\n        /* \"#utility.yul\":3397:3406   */\n      dup3\n        /* \"#utility.yul\":3393:3411   */\n      add\n        /* \"#utility.yul\":3385:3411   */\n      swap1\n      pop\n        /* \"#utility.yul\":3421:3492   */\n      tag_132\n        /* \"#utility.yul\":3489:3490   */\n      0x00\n        /* \"#utility.yul\":3478:3487   */\n      dup4\n        /* \"#utility.yul\":3474:3491   */\n      add\n        /* \"#utility.yul\":3465:3471   */\n      dup5\n        /* \"#utility.yul\":3421:3492   */\n      tag_77\n      jump\t// in\n    tag_132:\n        /* \"#utility.yul\":3277:3499   */\n      swap3\n      swap2\n      pop\n      pop\n      jump\t// out\n        /* \"#utility.yul\":3505:3595   */\n    tag_78:\n        /* \"#utility.yul\":3539:3546   */\n      0x00\n        /* \"#utility.yul\":3582:3587   */\n      dup2\n        /* \"#utility.yul\":3575:3588   */\n      iszero\n        /* \"#utility.yul\":3568:3589   */\n      iszero\n        /* \"#utility.yul\":3557:3589   */\n      swap1\n      pop\n        /* \"#utility.yul\":3505:3595   */\n      swap2\n      swap1\n      pop\n      jump\t// out\n        /* \"#utility.yul\":3601:3710   */\n    tag_79:\n        /* \"#utility.yul\":3682:3703   */\n      tag_135\n        /* \"#utility.yul\":3697:3702   */\n      dup2\n        /* \"#utility.yul\":3682:3703   */\n      tag_78\n      jump\t// in\n    tag_135:\n        /* \"#utility.yul\":3677:3680   */\n      dup3\n        /* \"#utility.yul\":3670:3704   */\n      mstore\n        /* \"#utility.yul\":3601:3710   */\n      pop\n      pop\n      jump\t// out\n        /* \"#utility.yul\":3716:3926   */\n    tag_18:\n        /* \"#utility.yul\":3803:3807   */\n      0x00\n        /* \"#utility.yul\":3841:3843   */\n      0x20\n        /* \"#utility.yul\":3830:3839   */\n      dup3\n        /* \"#utility.yul\":3826:3844   */\n      add\n        /* \"#utility.yul\":3818:3844   */\n      swap1\n      pop\n        /* \"#utility.yul\":3854:3919   */\n      tag_137\n        /* \"#utility.yul\":3916:3917   */\n      0x00\n        /* \"#utility.yul\":3905:3914   */\n      dup4\n        /* \"#utility.yul\":3901:3918   */\n      add\n        /* \"#utility.yul\":3892:3898   */\n      dup5\n        /* \"#utility.yul\":3854:3919   */\n      tag_79\n      jump\t// in\n    tag_137:\n        /* \"#utility.yul\":3716:3926   */\n      swap3\n      swap2\n      pop\n      pop\n      jump\t// out\n        /* \"#utility.yul\":3932:4054   */\n    tag_80:\n        /* \"#utility.yul\":4005:4029   */\n      tag_139\n        /* \"#utility.yul\":4023:4028   */\n      dup2\n        /* \"#utility.yul\":4005:4029   */\n      tag_76\n      jump\t// in\n    tag_139:\n        /* \"#utility.yul\":3998:4003   */\n      dup2\n        /* \"#utility.yul\":3995:4030   */\n      eq\n        /* \"#utility.yul\":3985:4048   */\n      tag_140\n      jumpi\n        /* \"#utility.yul\":4044:4045   */\n      0x00\n        /* \"#utility.yul\":4041:4042   */\n      dup1\n        /* \"#utility.yul\":4034:4046   */\n      revert\n        /* \"#utility.yul\":3985:4048   */\n    tag_140:\n        /* \"#utility.yul\":3932:4054   */\n      pop\n      jump\t// out\n        /* \"#utility.yul\":4060:4199   */\n    tag_81:\n        /* \"#utility.yul\":4106:4111   */\n      0x00\n        /* \"#utility.yul\":4144:4150   */\n      dup2\n        /* \"#utility.yul\":4131:4151   */\n      calldataload\n        /* \"#utility.yul\":4122:4151   */\n      swap1\n      pop\n        /* \"#utility.yul\":4160:4193   */\n      tag_142\n        /* \"#utility.yul\":4187:4192   */\n      dup2\n        /* \"#utility.yul\":4160:4193   */\n      tag_80\n      jump\t// in\n    tag_142:\n        /* \"#utility.yul\":4060:4199   */\n      swap3\n      swap2\n      pop\n      pop\n      jump\t// out\n        /* \"#utility.yul\":4205:4534   */\n    tag_25:\n        /* \"#utility.yul\":4264:4270   */\n      0x00\n        /* \"#utility.yul\":4313:4315   */\n      0x20\n        /* \"#utility.yul\":4301:4310   */\n      dup3\n        /* \"#utility.yul\":4292:4299   */\n      dup5\n        /* \"#utility.yul\":4288:4311   */\n      sub\n        /* \"#utility.yul\":4284:4316   */\n      slt\n        /* \"#utility.yul\":4281:4400   */\n      iszero\n      tag_144\n      jumpi\n        /* \"#utility.yul\":4319:4398   */\n      tag_145\n      tag_64\n      jump\t// in\n    tag_145:\n        /* \"#utility.yul\":4281:4400   */\n    tag_144:\n        /* \"#utility.yul\":4439:4440   */\n      0x00\n        /* \"#utility.yul\":4464:4517   */\n      tag_146\n        /* \"#utility.yul\":4509:4516   */\n      dup5\n        /* \"#utility.yul\":4500:4506   */\n      dup3\n        /* \"#utility.yul\":4489:4498   */\n      dup6\n        /* \"#utility.yul\":4485:4507   */\n      add\n        /* \"#utility.yul\":4464:4517   */\n      tag_81\n      jump\t// in\n    tag_146:\n        /* \"#utility.yul\":4454:4517   */\n      swap2\n      pop\n        /* \"#utility.yul\":4410:4527   */\n      pop\n        /* \"#utility.yul\":4205:4534   */\n      swap3\n      swap2\n      pop\n      pop\n      jump\t// out\n        /* \"#utility.yul\":4540:4639   */\n    tag_82:\n        /* \"#utility.yul\":4592:4598   */\n      0x00\n        /* \"#utility.yul\":4626:4631   */\n      dup2\n        /* \"#utility.yul\":4620:4632   */\n      mload\n        /* \"#utility.yul\":4610:4632   */\n      swap1\n      pop\n        /* \"#utility.yul\":4540:4639   */\n      swap2\n      swap1\n      pop\n      jump\t// out\n        /* \"#utility.yul\":4645:4814   */\n    tag_83:\n        /* \"#utility.yul\":4729:4740   */\n      0x00\n        /* \"#utility.yul\":4763:4769   */\n      dup3\n        /* \"#utility.yul\":4758:4761   */\n      dup3\n        /* \"#utility.yul\":4751:4770   */\n      mstore\n        /* \"#utility.yul\":4803:4807   */\n      0x20\n        /* \"#utility.yul\":4798:4801   */\n      dup3\n        /* \"#utility.yul\":4794:4808   */\n      add\n        /* \"#utility.yul\":4779:4808   */\n      swap1\n      pop\n        /* \"#utility.yul\":4645:4814   */\n      swap3\n      swap2\n      pop\n      pop\n      jump\t// out\n        /* \"#utility.yul\":4820:4959   */\n    tag_84:\n        /* \"#utility.yul\":4909:4915   */\n      dup3\n        /* \"#utility.yul\":4904:4907   */\n      dup2\n        /* \"#utility.yul\":4899:4902   */\n      dup4\n        /* \"#utility.yul\":4893:4916   */\n      mcopy\n        /* \"#utility.yul\":4950:4951   */\n      0x00\n        /* \"#utility.yul\":4941:4947   */\n      dup4\n        /* \"#utility.yul\":4936:4939   */\n      dup4\n        /* \"#utility.yul\":4932:4948   */\n      add\n        /* \"#utility.yul\":4925:4952   */\n      mstore\n        /* \"#utility.yul\":4820:4959   */\n      pop\n      pop\n      pop\n      jump\t// out\n        /* \"#utility.yul\":4965:5342   */\n    tag_85:\n        /* \"#utility.yul\":5053:5056   */\n      0x00\n        /* \"#utility.yul\":5081:5120   */\n      tag_151\n        /* \"#utility.yul\":5114:5119   */\n      dup3\n        /* \"#utility.yul\":5081:5120   */\n      tag_82\n      jump\t// in\n    tag_151:\n        /* \"#utility.yul\":5136:5207   */\n      tag_152\n        /* \"#utility.yul\":5200:5206   */\n      dup2\n        /* \"#utility.yul\":5195:5198   */\n      dup6\n        /* \"#utility.yul\":5136:5207   */\n      tag_83\n      jump\t// in\n    tag_152:\n        /* \"#utility.yul\":5129:5207   */\n      swap4\n      pop\n        /* \"#utility.yul\":5216:5281   */\n      tag_153\n        /* \"#utility.yul\":5274:5280   */\n      dup2\n        /* \"#utility.yul\":5269:5272   */\n      dup6\n        /* \"#utility.yul\":5262:5266   */\n      0x20\n        /* \"#utility.yul\":5255:5260   */\n      dup7\n        /* \"#utility.yul\":5251:5267   */\n      add\n        /* \"#utility.yul\":5216:5281   */\n      tag_84\n      jump\t// in\n    tag_153:\n        /* \"#utility.yul\":5306:5335   */\n      tag_154\n        /* \"#utility.yul\":5328:5334   */\n      dup2\n        /* \"#utility.yul\":5306:5335   */\n      tag_68\n      jump\t// in\n    tag_154:\n        /* \"#utility.yul\":5301:5304   */\n      dup5\n        /* \"#utility.yul\":5297:5336   */\n      add\n        /* \"#utility.yul\":5290:5336   */\n      swap2\n      pop\n        /* \"#utility.yul\":5057:5342   */\n      pop\n        /* \"#utility.yul\":4965:5342   */\n      swap3\n      swap2\n      pop\n      pop\n      jump\t// out\n        /* \"#utility.yul\":5348:5661   */\n    tag_28:\n        /* \"#utility.yul\":5461:5465   */\n      0x00\n        /* \"#utility.yul\":5499:5501   */\n      0x20\n        /* \"#utility.yul\":5488:5497   */\n      dup3\n        /* \"#utility.yul\":5484:5502   */\n      add\n        /* \"#utility.yul\":5476:5502   */\n      swap1\n      pop\n        /* \"#utility.yul\":5548:5557   */\n      dup2\n        /* \"#utility.yul\":5542:5546   */\n      dup2\n        /* \"#utility.yul\":5538:5558   */\n      sub\n        /* \"#utility.yul\":5534:5535   */\n      0x00\n        /* \"#utility.yul\":5523:5532   */\n      dup4\n        /* \"#utility.yul\":5519:5536   */\n      add\n        /* \"#utility.yul\":5512:5559   */\n      mstore\n        /* \"#utility.yul\":5576:5654   */\n      tag_156\n        /* \"#utility.yul\":5649:5653   */\n      dup2\n        /* \"#utility.yul\":5640:5646   */\n      dup5\n        /* \"#utility.yul\":5576:5654   */\n      tag_85\n      jump\t// in\n    tag_156:\n        /* \"#utility.yul\":5568:5654   */\n      swap1\n      pop\n        /* \"#utility.yul\":5348:5661   */\n      swap3\n      swap2\n      pop\n      pop\n      jump\t// out\n        /* \"#utility.yul\":5667:5815   */\n    tag_86:\n        /* \"#utility.yul\":5769:5780   */\n      0x00\n        /* \"#utility.yul\":5806:5809   */\n      dup2\n        /* \"#utility.yul\":5791:5809   */\n      swap1\n      pop\n        /* \"#utility.yul\":5667:5815   */\n      swap3\n      swap2\n      pop\n      pop\n      jump\t// out\n        /* \"#utility.yul\":5821:6211   */\n    tag_87:\n        /* \"#utility.yul\":5927:5930   */\n      0x00\n        /* \"#utility.yul\":5955:5994   */\n      tag_159\n        /* \"#utility.yul\":5988:5993   */\n      dup3\n        /* \"#utility.yul\":5955:5994   */\n      tag_82\n      jump\t// in\n    tag_159:\n        /* \"#utility.yul\":6010:6099   */\n      tag_160\n        /* \"#utility.yul\":6092:6098   */\n      dup2\n        /* \"#utility.yul\":6087:6090   */\n      dup6\n        /* \"#utility.yul\":6010:6099   */\n      tag_86\n      jump\t// in\n    tag_160:\n        /* \"#utility.yul\":6003:6099   */\n      swap4\n      pop\n        /* \"#utility.yul\":6108:6173   */\n      tag_161\n        /* \"#utility.yul\":6166:6172   */\n      dup2\n        /* \"#utility.yul\":6161:6164   */\n      dup6\n        /* \"#utility.yul\":6154:6158   */\n      0x20\n        /* \"#utility.yul\":6147:6152   */\n      dup7\n        /* \"#utility.yul\":6143:6159   */\n      add\n        /* \"#utility.yul\":6108:6173   */\n      tag_84\n      jump\t// in\n    tag_161:\n        /* \"#utility.yul\":6198:6204   */\n      dup1\n        /* \"#utility.yul\":6193:6196   */\n      dup5\n        /* \"#utility.yul\":6189:6205   */\n      add\n        /* \"#utility.yul\":6182:6205   */\n      swap2\n      pop\n        /* \"#utility.yul\":5931:6211   */\n      pop\n        /* \"#utility.yul\":5821:6211   */\n      swap3\n      swap2\n      pop\n      pop\n      jump\t// out\n        /* \"#utility.yul\":6217:6492   */\n    tag_36:\n        /* \"#utility.yul\":6349:6352   */\n      0x00\n        /* \"#utility.yul\":6371:6466   */\n      tag_163\n        /* \"#utility.yul\":6462:6465   */\n      dup3\n        /* \"#utility.yul\":6453:6459   */\n      dup5\n        /* \"#utility.yul\":6371:6466   */\n      tag_87\n      jump\t// in\n    tag_163:\n        /* \"#utility.yul\":6364:6466   */\n      swap2\n      pop\n        /* \"#utility.yul\":6483:6486   */\n      dup2\n        /* \"#utility.yul\":6476:6486   */\n      swap1\n      pop\n        /* \"#utility.yul\":6217:6492   */\n      swap3\n      swap2\n      pop\n      pop\n      jump\t// out\n        /* \"#utility.yul\":6498:6678   */\n    tag_44:\n        /* \"#utility.yul\":6546:6623   */\n      0x4e487b7100000000000000000000000000000000000000000000000000000000\n        /* \"#utility.yul\":6543:6544   */\n      0x00\n        /* \"#utility.yul\":6536:6624   */\n      mstore\n        /* \"#utility.yul\":6643:6647   */\n      0x32\n        /* \"#utility.yul\":6640:6641   */\n      0x04\n        /* \"#utility.yul\":6633:6648   */\n      mstore\n        /* \"#utility.yul\":6667:6671   */\n      0x24\n        /* \"#utility.yul\":6664:6665   */\n      0x00\n        /* \"#utility.yul\":6657:6672   */\n      revert\n        /* \"#utility.yul\":6684:6864   */\n    tag_88:\n        /* \"#utility.yul\":6732:6809   */\n      0x4e487b7100000000000000000000000000000000000000000000000000000000\n        /* \"#utility.yul\":6729:6730   */\n      0x00\n        /* \"#utility.yul\":6722:6810   */\n      mstore\n        /* \"#utility.yul\":6829:6833   */\n      0x22\n        /* \"#utility.yul\":6826:6827   */\n      0x04\n        /* \"#utility.yul\":6819:6834   */\n      mstore\n        /* \"#utility.yul\":6853:6857   */\n      0x24\n        /* \"#utility.yul\":6850:6851   */\n      0x00\n        /* \"#utility.yul\":6843:6858   */\n      revert\n        /* \"#utility.yul\":6870:7190   */\n    tag_52:\n        /* \"#utility.yul\":6914:6920   */\n      0x00\n        /* \"#utility.yul\":6951:6952   */\n      0x02\n        /* \"#utility.yul\":6945:6949   */\n      dup3\n        /* \"#utility.yul\":6941:6953   */\n      div\n        /* \"#utility.yul\":6931:6953   */\n      swap1\n      pop\n        /* \"#utility.yul\":6998:6999   */\n      0x01\n        /* \"#utility.yul\":6992:6996   */\n      dup3\n        /* \"#utility.yul\":6988:7000   */\n      and\n        /* \"#utility.yul\":7019:7037   */\n      dup1\n        /* \"#utility.yul\":7009:7090   */\n      tag_167\n      jumpi\n        /* \"#utility.yul\":7075:7079   */\n      0x7f\n        /* \"#utility.yul\":7067:7073   */\n      dup3\n        /* \"#utility.yul\":7063:7080   */\n      and\n        /* \"#utility.yul\":7053:7080   */\n      swap2\n      pop\n        /* \"#utility.yul\":7009:7090   */\n    tag_167:\n        /* \"#utility.yul\":7137:7139   */\n      0x20\n        /* \"#utility.yul\":7129:7135   */\n      dup3\n        /* \"#utility.yul\":7126:7140   */\n      lt\n        /* \"#utility.yul\":7106:7124   */\n      dup2\n        /* \"#utility.yul\":7103:7141   */\n      sub\n        /* \"#utility.yul\":7100:7184   */\n      tag_168\n      jumpi\n        /* \"#utility.yul\":7156:7174   */\n      tag_169\n      tag_88\n      jump\t// in\n    tag_169:\n        /* \"#utility.yul\":7100:7184   */\n    tag_168:\n        /* \"#utility.yul\":6921:7190   */\n      pop\n        /* \"#utility.yul\":6870:7190   */\n      swap2\n      swap1\n      pop\n      jump\t// out\n        /* \"#utility.yul\":7196:7337   */\n    tag_89:\n        /* \"#utility.yul\":7245:7249   */\n      0x00\n        /* \"#utility.yul\":7268:7271   */\n      dup2\n        /* \"#utility.yul\":7260:7271   */\n      swap1\n      pop\n        /* \"#utility.yul\":7291:7294   */\n      dup2\n        /* \"#utility.yul\":7288:7289   */\n      0x00\n        /* \"#utility.yul\":7281:7295   */\n      mstore\n        /* \"#utility.yul\":7325:7329   */\n      0x20\n        /* \"#utility.yul\":7322:7323   */\n      0x00\n        /* \"#utility.yul\":7312:7330   */\n      keccak256\n        /* \"#utility.yul\":7304:7330   */\n      swap1\n      pop\n        /* \"#utility.yul\":7196:7337   */\n      swap2\n      swap1\n      pop\n      jump\t// out\n        /* \"#utility.yul\":7367:8241   */\n    tag_90:\n        /* \"#utility.yul\":7470:7473   */\n      0x00\n        /* \"#utility.yul\":7507:7512   */\n      dup2\n        /* \"#utility.yul\":7501:7513   */\n      sload\n        /* \"#utility.yul\":7536:7572   */\n      tag_172\n        /* \"#utility.yul\":7562:7571   */\n      dup2\n        /* \"#utility.yul\":7536:7572   */\n      tag_52\n      jump\t// in\n    tag_172:\n        /* \"#utility.yul\":7588:7677   */\n      tag_173\n        /* \"#utility.yul\":7670:7676   */\n      dup2\n        /* \"#utility.yul\":7665:7668   */\n      dup7\n        /* \"#utility.yul\":7588:7677   */\n      tag_86\n      jump\t// in\n    tag_173:\n        /* \"#utility.yul\":7581:7677   */\n      swap5\n      pop\n        /* \"#utility.yul\":7708:7709   */\n      0x01\n        /* \"#utility.yul\":7697:7706   */\n      dup3\n        /* \"#utility.yul\":7693:7710   */\n      and\n        /* \"#utility.yul\":7724:7725   */\n      0x00\n        /* \"#utility.yul\":7719:7885   */\n      dup2\n      eq\n      tag_175\n      jumpi\n        /* \"#utility.yul\":7899:7900   */\n      0x01\n        /* \"#utility.yul\":7894:8235   */\n      dup2\n      eq\n      tag_176\n      jumpi\n        /* \"#utility.yul\":7686:8235   */\n      jump(tag_174)\n        /* \"#utility.yul\":7719:7885   */\n    tag_175:\n        /* \"#utility.yul\":7803:7807   */\n      0xff\n        /* \"#utility.yul\":7799:7808   */\n      not\n        /* \"#utility.yul\":7788:7797   */\n      dup4\n        /* \"#utility.yul\":7784:7809   */\n      and\n        /* \"#utility.yul\":7779:7782   */\n      dup7\n        /* \"#utility.yul\":7772:7810   */\n      mstore\n        /* \"#utility.yul\":7865:7871   */\n      dup2\n        /* \"#utility.yul\":7858:7872   */\n      iszero\n        /* \"#utility.yul\":7851:7873   */\n      iszero\n        /* \"#utility.yul\":7843:7849   */\n      dup3\n        /* \"#utility.yul\":7839:7874   */\n      mul\n        /* \"#utility.yul\":7834:7837   */\n      dup7\n        /* \"#utility.yul\":7830:7875   */\n      add\n        /* \"#utility.yul\":7823:7875   */\n      swap4\n      pop\n        /* \"#utility.yul\":7719:7885   */\n      jump(tag_174)\n        /* \"#utility.yul\":7894:8235   */\n    tag_176:\n        /* \"#utility.yul\":7961:7999   */\n      tag_177\n        /* \"#utility.yul\":7993:7998   */\n      dup6\n        /* \"#utility.yul\":7961:7999   */\n      tag_89\n      jump\t// in\n    tag_177:\n        /* \"#utility.yul\":8021:8022   */\n      0x00\n        /* \"#utility.yul\":8035:8189   */\n    tag_178:\n        /* \"#utility.yul\":8049:8055   */\n      dup4\n        /* \"#utility.yul\":8046:8047   */\n      dup2\n        /* \"#utility.yul\":8043:8056   */\n      lt\n        /* \"#utility.yul\":8035:8189   */\n      iszero\n      tag_180\n      jumpi\n        /* \"#utility.yul\":8123:8130   */\n      dup2\n        /* \"#utility.yul\":8117:8131   */\n      sload\n        /* \"#utility.yul\":8113:8114   */\n      dup2\n        /* \"#utility.yul\":8108:8111   */\n      dup10\n        /* \"#utility.yul\":8104:8115   */\n      add\n        /* \"#utility.yul\":8097:8132   */\n      mstore\n        /* \"#utility.yul\":8173:8174   */\n      0x01\n        /* \"#utility.yul\":8164:8171   */\n      dup3\n        /* \"#utility.yul\":8160:8175   */\n      add\n        /* \"#utility.yul\":8149:8175   */\n      swap2\n      pop\n        /* \"#utility.yul\":8071:8075   */\n      0x20\n        /* \"#utility.yul\":8068:8069   */\n      dup2\n        /* \"#utility.yul\":8064:8076   */\n      add\n        /* \"#utility.yul\":8059:8076   */\n      swap1\n      pop\n        /* \"#utility.yul\":8035:8189   */\n      jump(tag_178)\n    tag_180:\n        /* \"#utility.yul\":8218:8224   */\n      dup4\n        /* \"#utility.yul\":8213:8216   */\n      dup9\n        /* \"#utility.yul\":8209:8225   */\n      add\n        /* \"#utility.yul\":8202:8225   */\n      swap6\n      pop\n        /* \"#utility.yul\":7901:8235   */\n      pop\n      pop\n        /* \"#utility.yul\":7686:8235   */\n    tag_174:\n      pop\n        /* \"#utility.yul\":7474:8241   */\n      pop\n      pop\n        /* \"#utility.yul\":7367:8241   */\n      swap3\n      swap2\n      pop\n      pop\n      jump\t// out\n        /* \"#utility.yul\":8247:8516   */\n    tag_47:\n        /* \"#utility.yul\":8376:8379   */\n      0x00\n        /* \"#utility.yul\":8398:8490   */\n      tag_182\n        /* \"#utility.yul\":8486:8489   */\n      dup3\n        /* \"#utility.yul\":8477:8483   */\n      dup5\n        /* \"#utility.yul\":8398:8490   */\n      tag_90\n      jump\t// in\n    tag_182:\n        /* \"#utility.yul\":8391:8490   */\n      swap2\n      pop\n        /* \"#utility.yul\":8507:8510   */\n      dup2\n        /* \"#utility.yul\":8500:8510   */\n      swap1\n      pop\n        /* \"#utility.yul\":8247:8516   */\n      swap3\n      swap2\n      pop\n      pop\n      jump\t// out\n        /* \"#utility.yul\":8522:8702   */\n    tag_91:\n        /* \"#utility.yul\":8570:8647   */\n      0x4e487b7100000000000000000000000000000000000000000000000000000000\n        /* \"#utility.yul\":8567:8568   */\n      0x00\n        /* \"#utility.yul\":8560:8648   */\n      mstore\n        /* \"#utility.yul\":8667:8671   */\n      0x11\n        /* \"#utility.yul\":8664:8665   */\n      0x04\n        /* \"#utility.yul\":8657:8672   */\n      mstore\n        /* \"#utility.yul\":8691:8695   */\n      0x24\n        /* \"#utility.yul\":8688:8689   */\n      0x00\n        /* \"#utility.yul\":8681:8696   */\n      revert\n        /* \"#utility.yul\":8708:8899   */\n    tag_62:\n        /* \"#utility.yul\":8748:8751   */\n      0x00\n        /* \"#utility.yul\":8767:8787   */\n      tag_185\n        /* \"#utility.yul\":8785:8786   */\n      dup3\n        /* \"#utility.yul\":8767:8787   */\n      tag_76\n      jump\t// in\n    tag_185:\n        /* \"#utility.yul\":8762:8787   */\n      swap2\n      pop\n        /* \"#utility.yul\":8801:8821   */\n      tag_186\n        /* \"#utility.yul\":8819:8820   */\n      dup4\n        /* \"#utility.yul\":8801:8821   */\n      tag_76\n      jump\t// in\n    tag_186:\n        /* \"#utility.yul\":8796:8821   */\n      swap3\n      pop\n        /* \"#utility.yul\":8844:8845   */\n      dup3\n        /* \"#utility.yul\":8841:8842   */\n      dup3\n        /* \"#utility.yul\":8837:8846   */\n      add\n        /* \"#utility.yul\":8830:8846   */\n      swap1\n      pop\n        /* \"#utility.yul\":8865:8868   */\n      dup1\n        /* \"#utility.yul\":8862:8863   */\n      dup3\n        /* \"#utility.yul\":8859:8869   */\n      gt\n        /* \"#utility.yul\":8856:8892   */\n      iszero\n      tag_187\n      jumpi\n        /* \"#utility.yul\":8872:8890   */\n      tag_188\n      tag_91\n      jump\t// in\n    tag_188:\n        /* \"#utility.yul\":8856:8892   */\n    tag_187:\n        /* \"#utility.yul\":8708:8899   */\n      swap3\n      swap2\n      pop\n      pop\n      jump\t// out\n\n    auxdata: 0xa264697066735822122015fe75835bd4d23432de9d41693ca00f95b6e229bfa270826d089a2d141c5e0164736f6c634300081a0033\n}\n",
				"bytecode": {
					"linkReferences": {},
					"object": "608060405234801561000f575f80fd5b50604051610e8c380380610e8c8339818101604052810190610031919061034f565b806001908051906020019061004792919061004e565b5050610672565b828054828255905f5260205f20908101928215610094579160200282015b8281111561009357825182908161008391906105a3565b509160200191906001019061006c565b5b5090506100a191906100a5565b5090565b5b808211156100c4575f81816100bb91906100c8565b506001016100a6565b5090565b5080546100d4906103cd565b5f825580601f106100e55750610102565b601f0160209004905f5260205f20908101906101019190610105565b5b50565b5b8082111561011c575f815f905550600101610106565b5090565b5f604051905090565b5f80fd5b5f80fd5b5f80fd5b5f601f19601f8301169050919050565b7f4e487b71000000000000000000000000000000000000000000000000000000005f52604160045260245ffd5b61017b82610135565b810181811067ffffffffffffffff8211171561019a57610199610145565b5b80604052505050565b5f6101ac610120565b90506101b88282610172565b919050565b5f67ffffffffffffffff8211156101d7576101d6610145565b5b602082029050602081019050919050565b5f80fd5b5f80fd5b5f67ffffffffffffffff82111561020a57610209610145565b5b61021382610135565b9050602081019050919050565b8281835e5f83830152505050565b5f61024061023b846101f0565b6101a3565b90508281526020810184848401111561025c5761025b6101ec565b5b610267848285610220565b509392505050565b5f82601f83011261028357610282610131565b5b815161029384826020860161022e565b91505092915050565b5f6102ae6102a9846101bd565b6101a3565b905080838252602082019050602084028301858111156102d1576102d06101e8565b5b835b8181101561031857805167ffffffffffffffff8111156102f6576102f5610131565b5b808601610303898261026f565b855260208501945050506020810190506102d3565b5050509392505050565b5f82601f83011261033657610335610131565b5b815161034684826020860161029c565b91505092915050565b5f6020828403121561036457610363610129565b5b5f82015167ffffffffffffffff8111156103815761038061012d565b5b61038d84828501610322565b91505092915050565b5f81519050919050565b7f4e487b71000000000000000000000000000000000000000000000000000000005f52602260045260245ffd5b5f60028204905060018216806103e457607f821691505b6020821081036103f7576103f66103a0565b5b50919050565b5f819050815f5260205f209050919050565b5f6020601f8301049050919050565b5f82821b905092915050565b5f600883026104597fffffffffffffffffffffffffffffffffffffffffffffffffffffffffffffffff8261041e565b610463868361041e565b95508019841693508086168417925050509392505050565b5f819050919050565b5f819050919050565b5f6104a76104a261049d8461047b565b610484565b61047b565b9050919050565b5f819050919050565b6104c08361048d565b6104d46104cc826104ae565b84845461042a565b825550505050565b5f90565b6104e86104dc565b6104f38184846104b7565b505050565b5b818110156105165761050b5f826104e0565b6001810190506104f9565b5050565b601f82111561055b5761052c816103fd565b6105358461040f565b81016020851015610544578190505b6105586105508561040f565b8301826104f8565b50505b505050565b5f82821c905092915050565b5f61057b5f1984600802610560565b1980831691505092915050565b5f610593838361056c565b9150826002028217905092915050565b6105ac82610396565b67ffffffffffffffff8111156105c5576105c4610145565b5b6105cf82546103cd565b6105da82828561051a565b5f60209050601f83116001811461060b575f84156105f9578287015190505b6106038582610588565b86555061066a565b601f198416610619866103fd565b5f5b828110156106405784890151825560018201915060208501945060208101905061061b565b8683101561065d5784890151610659601f89168261056c565b8355505b6001600288020188555050505b505050505050565b61080d8061067f5f395ff3fe608060405234801561000f575f80fd5b5060043610610055575f3560e01c80634a3bf37714610059578063538c91b2146100895780638d4b44d9146100b9578063b13c744b146100e9578063e89927ef14610119575b5f80fd5b610073600480360381019061006e9190610475565b610135565b60405161008091906104d4565b60405180910390f35b6100a3600480360381019061009e9190610475565b61016c565b6040516100b09190610507565b60405180910390f35b6100d360048036038101906100ce9190610475565b61020e565b6040516100e091906104d4565b60405180910390f35b61010360048036038101906100fe919061054a565b61023a565b60405161011091906105d5565b60405180910390f35b610133600480360381019061012e9190610475565b6102e0565b005b5f61013f8261016c565b610147575f80fd5b5f82604051610156919061062f565b9081526020016040518091039020549050919050565b5f805f90505b6001805490508110156102045782604051602001610190919061062f565b60405160208183030381529060405280519060200120600182815481106101ba576101b9610645565b5b905f5260205f20016040516020016101d29190610761565b60405160208183030381529060405280519060200120036101f7576001915050610209565b8080600101915050610172565b505f90505b919050565b5f818051602081018201805184825260208301602085012081835280955050505050505f915090505481565b60018181548110610249575f80fd5b905f5260205f20015f9150905080546102619061069f565b80601f016020809104026020016040519081016040528092919081815260200182805461028d9061069f565b80156102d85780601f106102af576101008083540402835291602001916102d8565b820191905f5260205f20905b8154815290600101906020018083116102bb57829003601f168201915b505050505081565b6102e98161016c565b6102f1575f80fd5b60015f82604051610302919061062f565b90815260200160405180910390205f82825461031e91906107a4565b9250508190555050565b5f604051905090565b5f80fd5b5f80fd5b5f80fd5b5f80fd5b5f601f19601f8301169050919050565b7f4e487b71000000000000000000000000000000000000000000000000000000005f52604160045260245ffd5b61038782610341565b810181811067ffffffffffffffff821117156103a6576103a5610351565b5b80604052505050565b5f6103b8610328565b90506103c4828261037e565b919050565b5f67ffffffffffffffff8211156103e3576103e2610351565b5b6103ec82610341565b9050602081019050919050565b828183375f83830152505050565b5f610419610414846103c9565b6103af565b9050828152602081018484840111156104355761043461033d565b5b6104408482856103f9565b509392505050565b5f82601f83011261045c5761045b610339565b5b813561046c848260208601610407565b91505092915050565b5f6020828403121561048a57610489610331565b5b5f82013567ffffffffffffffff8111156104a7576104a6610335565b5b6104b384828501610448565b91505092915050565b5f819050919050565b6104ce816104bc565b82525050565b5f6020820190506104e75f8301846104c5565b92915050565b5f8115159050919050565b610501816104ed565b82525050565b5f60208201905061051a5f8301846104f8565b92915050565b610529816104bc565b8114610533575f80fd5b50565b5f8135905061054481610520565b92915050565b5f6020828403121561055f5761055e610331565b5b5f61056c84828501610536565b91505092915050565b5f81519050919050565b5f82825260208201905092915050565b8281835e5f83830152505050565b5f6105a782610575565b6105b1818561057f565b93506105c181856020860161058f565b6105ca81610341565b840191505092915050565b5f6020820190508181035f8301526105ed818461059d565b905092915050565b5f81905092915050565b5f61060982610575565b61061381856105f5565b935061062381856020860161058f565b80840191505092915050565b5f61063a82846105ff565b915081905092915050565b7f4e487b71000000000000000000000000000000000000000000000000000000005f52603260045260245ffd5b7f4e487b71000000000000000000000000000000000000000000000000000000005f52602260045260245ffd5b5f60028204905060018216806106b657607f821691505b6020821081036106c9576106c8610672565b5b50919050565b5f819050815f5260205f209050919050565b5f81546106ed8161069f565b6106f781866105f5565b9450600182165f8114610711576001811461072657610758565b60ff1983168652811515820286019350610758565b61072f856106cf565b5f5b8381101561075057815481890152600182019150602081019050610731565b838801955050505b50505092915050565b5f61076c82846106e1565b915081905092915050565b7f4e487b71000000000000000000000000000000000000000000000000000000005f52601160045260245ffd5b5f6107ae826104bc565b91506107b9836104bc565b92508282019050808211156107d1576107d0610777565b5b9291505056fea264697066735822122015fe75835bd4d23432de9d41693ca00f95b6e229bfa270826d089a2d141c5e0164736f6c634300081a0033",
					"opcodes": "PUSH1 0x80 PUSH1 0x40 MSTORE CALLVALUE DUP1 ISZERO PUSH2 0xF JUMPI PUSH0 DUP1 REVERT JUMPDEST POP PUSH1 0x40 MLOAD PUSH2 0xE8C CODESIZE SUB DUP1 PUSH2 0xE8C DUP4 CODECOPY DUP2 DUP2 ADD PUSH1 0x40 MSTORE DUP2 ADD SWAP1 PUSH2 0x31 SWAP2 SWAP1 PUSH2 0x34F JUMP JUMPDEST DUP1 PUSH1 0x1 SWAP1 DUP1 MLOAD SWAP1 PUSH1 0x20 ADD SWAP1 PUSH2 0x47 SWAP3 SWAP2 SWAP1 PUSH2 0x4E JUMP JUMPDEST POP POP PUSH2 0x672 JUMP JUMPDEST DUP3 DUP1 SLOAD DUP3 DUP3 SSTORE SWAP1 PUSH0 MSTORE PUSH1 0x20 PUSH0 KECCAK256 SWAP1 DUP2 ADD SWAP3 DUP3 ISZERO PUSH2 0x94 JUMPI SWAP2 PUSH1 0x20 MUL DUP3 ADD JUMPDEST DUP3 DUP2 GT ISZERO PUSH2 0x93 JUMPI DUP3 MLOAD DUP3 SWAP1 DUP2 PUSH2 0x83 SWAP2 SWAP1 PUSH2 0x5A3 JUMP JUMPDEST POP SWAP2 PUSH1 0x20 ADD SWAP2 SWAP1 PUSH1 0x1 ADD SWAP1 PUSH2 0x6C JUMP JUMPDEST JUMPDEST POP SWAP1 POP PUSH2 0xA1 SWAP2 SWAP1 PUSH2 0xA5 JUMP JUMPDEST POP SWAP1 JUMP JUMPDEST JUMPDEST DUP1 DUP3 GT ISZERO PUSH2 0xC4 JUMPI PUSH0 DUP2 DUP2 PUSH2 0xBB SWAP2 SWAP1 PUSH2 0xC8 JUMP JUMPDEST POP PUSH1 0x1 ADD PUSH2 0xA6 JUMP JUMPDEST POP SWAP1 JUMP JUMPDEST POP DUP1 SLOAD PUSH2 0xD4 SWAP1 PUSH2 0x3CD JUMP JUMPDEST PUSH0 DUP3 SSTORE DUP1 PUSH1 0x1F LT PUSH2 0xE5 JUMPI POP PUSH2 0x102 JUMP JUMPDEST PUSH1 0x1F ADD PUSH1 0x20 SWAP1 DIV SWAP1 PUSH0 MSTORE PUSH1 0x20 PUSH0 KECCAK256 SWAP1 DUP2 ADD SWAP1 PUSH2 0x101 SWAP2 SWAP1 PUSH2 0x105 JUMP JUMPDEST JUMPDEST POP JUMP JUMPDEST JUMPDEST DUP1 DUP3 GT ISZERO PUSH2 0x11C JUMPI PUSH0 DUP2 PUSH0 SWAP1 SSTORE POP PUSH1 0x1 ADD PUSH2 0x106 JUMP JUMPDEST POP SWAP1 JUMP JUMPDEST PUSH0 PUSH1 0x40 MLOAD SWAP1 POP SWAP1 JUMP JUMPDEST PUSH0 DUP1 REVERT JUMPDEST PUSH0 DUP1 REVERT JUMPDEST PUSH0 DUP1 REVERT JUMPDEST PUSH0 PUSH1 0x1F NOT PUSH1 0x1F DUP4 ADD AND SWAP1 POP SWAP2 SWAP1 POP JUMP JUMPDEST PUSH32 0x4E487B7100000000000000000000000000000000000000000000000000000000 PUSH0 MSTORE PUSH1 0x41 PUSH1 0x4 MSTORE PUSH1 0x24 PUSH0 REVERT JUMPDEST PUSH2 0x17B DUP3 PUSH2 0x135 JUMP JUMPDEST DUP2 ADD DUP2 DUP2 LT PUSH8 0xFFFFFFFFFFFFFFFF DUP3 GT OR ISZERO PUSH2 0x19A JUMPI PUSH2 0x199 PUSH2 0x145 JUMP JUMPDEST JUMPDEST DUP1 PUSH1 0x40 MSTORE POP POP POP JUMP JUMPDEST PUSH0 PUSH2 0x1AC PUSH2 0x120 JUMP JUMPDEST SWAP1 POP PUSH2 0x1B8 DUP3 DUP3 PUSH2 0x172 JUMP JUMPDEST SWAP2 SWAP1 POP JUMP JUMPDEST PUSH0 PUSH8 0xFFFFFFFFFFFFFFFF DUP3 GT ISZERO PUSH2 0x1D7 JUMPI PUSH2 0x1D6 PUSH2 0x145 JUMP JUMPDEST JUMPDEST PUSH1 0x20 DUP3 MUL SWAP1 POP PUSH1 0x20 DUP2 ADD SWAP1 POP SWAP2 SWAP1 POP JUMP JUMPDEST PUSH0 DUP1 REVERT JUMPDEST PUSH0 DUP1 REVERT JUMPDEST PUSH0 PUSH8 0xFFFFFFFFFFFFFFFF DUP3 GT ISZERO PUSH2 0x20A JUMPI PUSH2 0x209 PUSH2 0x145 JUMP JUMPDEST JUMPDEST PUSH2 0x213 DUP3 PUSH2 0x135 JUMP JUMPDEST SWAP1 POP PUSH1 0x20 DUP2 ADD SWAP1 POP SWAP2 SWAP1 POP JUMP JUMPDEST DUP3 DUP2 DUP4 MCOPY PUSH0 DUP4 DUP4 ADD MSTORE POP POP POP JUMP JUMPDEST PUSH0 PUSH2 0x240 PUSH2 0x23B DUP5 PUSH2 0x1F0 JUMP JUMPDEST PUSH2 0x1A3 JUMP JUMPDEST SWAP1 POP DUP3 DUP2 MSTORE PUSH1 0x20 DUP2 ADD DUP5 DUP5 DUP5 ADD GT ISZERO PUSH2 0x25C JUMPI PUSH2 0x25B PUSH2 0x1EC JUMP JUMPDEST JUMPDEST PUSH2 0x267 DUP5 DUP3 DUP6 PUSH2 0x220 JUMP JUMPDEST POP SWAP4 SWAP3 POP POP POP JUMP JUMPDEST PUSH0 DUP3 PUSH1 0x1F DUP4 ADD SLT PUSH2 0x283 JUMPI PUSH2 0x282 PUSH2 0x131 JUMP JUMPDEST JUMPDEST DUP2 MLOAD PUSH2 0x293 DUP5 DUP3 PUSH1 0x20 DUP7 ADD PUSH2 0x22E JUMP JUMPDEST SWAP2 POP POP SWAP3 SWAP2 POP POP JUMP JUMPDEST PUSH0 PUSH2 0x2AE PUSH2 0x2A9 DUP5 PUSH2 0x1BD JUMP JUMPDEST PUSH2 0x1A3 JUMP JUMPDEST SWAP1 POP DUP1 DUP4 DUP3 MSTORE PUSH1 0x20 DUP3 ADD SWAP1 POP PUSH1 0x20 DUP5 MUL DUP4 ADD DUP6 DUP2 GT ISZERO PUSH2 0x2D1 JUMPI PUSH2 0x2D0 PUSH2 0x1E8 JUMP JUMPDEST JUMPDEST DUP4 JUMPDEST DUP2 DUP2 LT ISZERO PUSH2 0x318 JUMPI DUP1 MLOAD PUSH8 0xFFFFFFFFFFFFFFFF DUP2 GT ISZERO PUSH2 0x2F6 JUMPI PUSH2 0x2F5 PUSH2 0x131 JUMP JUMPDEST JUMPDEST DUP1 DUP7 ADD PUSH2 0x303 DUP10 DUP3 PUSH2 0x26F JUMP JUMPDEST DUP6 MSTORE PUSH1 0x20 DUP6 ADD SWAP5 POP POP POP PUSH1 0x20 DUP2 ADD SWAP1 POP PUSH2 0x2D3 JUMP JUMPDEST POP POP POP SWAP4 SWAP3 POP POP POP JUMP JUMPDEST PUSH0 DUP3 PUSH1 0x1F DUP4 ADD SLT PUSH2 0x336 JUMPI PUSH2 0x335 PUSH2 0x131 JUMP JUMPDEST JUMPDEST DUP2 MLOAD PUSH2 0x346 DUP5 DUP3 PUSH1 0x20 DUP7 ADD PUSH2 0x29C JUMP JUMPDEST SWAP2 POP POP SWAP3 SWAP2 POP POP JUMP JUMPDEST PUSH0 PUSH1 0x20 DUP3 DUP5 SUB SLT ISZERO PUSH2 0x364 JUMPI PUSH2 0x363 PUSH2 0x129 JUMP JUMPDEST JUMPDEST PUSH0 DUP3 ADD MLOAD PUSH8 0xFFFFFFFFFFFFFFFF DUP2 GT ISZERO PUSH2 0x381 JUMPI PUSH2 0x380 PUSH2 0x12D JUMP JUMPDEST JUMPDEST PUSH2 0x38D DUP5 DUP3 DUP6 ADD PUSH2 0x322 JUMP JUMPDEST SWAP2 POP POP SWAP3 SWAP2 POP POP JUMP JUMPDEST PUSH0 DUP2 MLOAD SWAP1 POP SWAP2 SWAP1 POP JUMP JUMPDEST PUSH32 0x4E487B7100000000000000000000000000000000000000000000000000000000 PUSH0 MSTORE PUSH1 0x22 PUSH1 0x4 MSTORE PUSH1 0x24 PUSH0 REVERT JUMPDEST PUSH0 PUSH1 0x2 DUP3 DIV SWAP1 POP PUSH1 0x1 DUP3 AND DUP1 PUSH2 0x3E4 JUMPI PUSH1 0x7F DUP3 AND SWAP2 POP JUMPDEST PUSH1 0x20 DUP3 LT DUP2 SUB PUSH2 0x3F7 JUMPI PUSH2 0x3F6 PUSH2 0x3A0 JUMP JUMPDEST JUMPDEST POP SWAP2 SWAP1 POP JUMP JUMPDEST PUSH0 DUP2 SWAP1 POP DUP2 PUSH0 MSTORE PUSH1 0x20 PUSH0 KECCAK256 SWAP1 POP SWAP2 SWAP1 POP JUMP JUMPDEST PUSH0 PUSH1 0x20 PUSH1 0x1F DUP4 ADD DIV SWAP1 POP SWAP2 SWAP1 POP JUMP JUMPDEST PUSH0 DUP3 DUP3 SHL SWAP1 POP SWAP3 SWAP2 POP POP JUMP JUMPDEST PUSH0 PUSH1 0x8 DUP4 MUL PUSH2 0x459 PUSH32 0xFFFFFFFFFFFFFFFFFFFFFFFFFFFFFFFFFFFFFFFFFFFFFFFFFFFFFFFFFFFFFFFF DUP3 PUSH2 0x41E JUMP JUMPDEST PUSH2 0x463 DUP7 DUP4 PUSH2 0x41E JUMP JUMPDEST SWAP6 POP DUP1 NOT DUP5 AND SWAP4 POP DUP1 DUP7 AND DUP5 OR SWAP3 POP POP POP SWAP4 SWAP3 POP POP POP JUMP JUMPDEST PUSH0 DUP2 SWAP1 POP SWAP2 SWAP1 POP JUMP JUMPDEST PUSH0 DUP2 SWAP1 POP SWAP2 SWAP1 POP JUMP JUMPDEST PUSH0 PUSH2 0x4A7 PUSH2 0x4A2 PUSH2 0x49D DUP5 PUSH2 0x47B JUMP JUMPDEST PUSH2 0x484 JUMP JUMPDEST PUSH2 0x47B JUMP JUMPDEST SWAP1 POP SWAP2 SWAP1 POP JUMP JUMPDEST PUSH0 DUP2 SWAP1 POP SWAP2 SWAP1 POP JUMP JUMPDEST PUSH2 0x4C0 DUP4 PUSH2 0x48D JUMP JUMPDEST PUSH2 0x4D4 PUSH2 0x4CC DUP3 PUSH2 0x4AE JUMP JUMPDEST DUP5 DUP5 SLOAD PUSH2 0x42A JUMP JUMPDEST DUP3 SSTORE POP POP POP POP JUMP JUMPDEST PUSH0 SWAP1 JUMP JUMPDEST PUSH2 0x4E8 PUSH2 0x4DC JUMP JUMPDEST PUSH2 0x4F3 DUP2 DUP5 DUP5 PUSH2 0x4B7 JUMP JUMPDEST POP POP POP JUMP JUMPDEST JUMPDEST DUP2 DUP2 LT ISZERO PUSH2 0x516 JUMPI PUSH2 0x50B PUSH0 DUP3 PUSH2 0x4E0 JUMP JUMPDEST PUSH1 0x1 DUP2 ADD SWAP1 POP PUSH2 0x4F9 JUMP JUMPDEST POP POP JUMP JUMPDEST PUSH1 0x1F DUP3 GT ISZERO PUSH2 0x55B JUMPI PUSH2 0x52C DUP2 PUSH2 0x3FD JUMP JUMPDEST PUSH2 0x535 DUP5 PUSH2 0x40F JUMP JUMPDEST DUP2 ADD PUSH1 0x20 DUP6 LT ISZERO PUSH2 0x544 JUMPI DUP2 SWAP1 POP JUMPDEST PUSH2 0x558 PUSH2 0x550 DUP6 PUSH2 0x40F JUMP JUMPDEST DUP4 ADD DUP3 PUSH2 0x4F8 JUMP JUMPDEST POP POP JUMPDEST POP POP POP JUMP JUMPDEST PUSH0 DUP3 DUP3 SHR SWAP1 POP SWAP3 SWAP2 POP POP JUMP JUMPDEST PUSH0 PUSH2 0x57B PUSH0 NOT DUP5 PUSH1 0x8 MUL PUSH2 0x560 JUMP JUMPDEST NOT DUP1 DUP4 AND SWAP2 POP POP SWAP3 SWAP2 POP POP JUMP JUMPDEST PUSH0 PUSH2 0x593 DUP4 DUP4 PUSH2 0x56C JUMP JUMPDEST SWAP2 POP DUP3 PUSH1 0x2 MUL DUP3 OR SWAP1 POP SWAP3 SWAP2 POP POP JUMP JUMPDEST PUSH2 0x5AC DUP3 PUSH2 0x396 JUMP JUMPDEST PUSH8 0xFFFFFFFFFFFFFFFF DUP2 GT ISZERO PUSH2 0x5C5 JUMPI PUSH2 0x5C4 PUSH2 0x145 JUMP JUMPDEST JUMPDEST PUSH2 0x5CF DUP3 SLOAD PUSH2 0x3CD JUMP JUMPDEST PUSH2 0x5DA DUP3 DUP3 DUP6 PUSH2 0x51A JUMP JUMPDEST PUSH0 PUSH1 0x20 SWAP1 POP PUSH1 0x1F DUP4 GT PUSH1 0x1 DUP2 EQ PUSH2 0x60B JUMPI PUSH0 DUP5 ISZERO PUSH2 0x5F9 JUMPI DUP3 DUP8 ADD MLOAD SWAP1 POP JUMPDEST PUSH2 0x603 DUP6 DUP3 PUSH2 0x588 JUMP JUMPDEST DUP7 SSTORE POP PUSH2 0x66A JUMP JUMPDEST PUSH1 0x1F NOT DUP5 AND PUSH2 0x619 DUP7 PUSH2 0x3FD JUMP JUMPDEST PUSH0 JUMPDEST DUP3 DUP2 LT ISZERO PUSH2 0x640 JUMPI DUP5 DUP10 ADD MLOAD DUP3 SSTORE PUSH1 0x1 DUP3 ADD SWAP2 POP PUSH1 0x20 DUP6 ADD SWAP5 POP PUSH1 0x20 DUP2 ADD SWAP1 POP PUSH2 0x61B JUMP JUMPDEST DUP7 DUP4 LT ISZERO PUSH2 0x65D JUMPI DUP5 DUP10 ADD MLOAD PUSH2 0x659 PUSH1 0x1F DUP10 AND DUP3 PUSH2 0x56C JUMP JUMPDEST DUP4 SSTORE POP JUMPDEST PUSH1 0x1 PUSH1 0x2 DUP9 MUL ADD DUP9 SSTORE POP POP POP JUMPDEST POP POP POP POP POP POP JUMP JUMPDEST PUSH2 0x80D DUP1 PUSH2 0x67F PUSH0 CODECOPY PUSH0 RETURN INVALID PUSH1 0x80 PUSH1 0x40 MSTORE CALLVALUE DUP1 ISZERO PUSH2 0xF JUMPI PUSH0 DUP1 REVERT JUMPDEST POP PUSH1 0x4 CALLDATASIZE LT PUSH2 0x55 JUMPI PUSH0 CALLDATALOAD PUSH1 0xE0 SHR DUP1 PUSH4 0x4A3BF377 EQ PUSH2 0x59 JUMPI DUP1 PUSH4 0x538C91B2 EQ PUSH2 0x89 JUMPI DUP1 PUSH4 0x8D4B44D9 EQ PUSH2 0xB9 JUMPI DUP1 PUSH4 0xB13C744B EQ PUSH2 0xE9 JUMPI DUP1 PUSH4 0xE89927EF EQ PUSH2 0x119 JUMPI JUMPDEST PUSH0 DUP1 REVERT JUMPDEST PUSH2 0x73 PUSH1 0x4 DUP1 CALLDATASIZE SUB DUP2 ADD SWAP1 PUSH2 0x6E SWAP2 SWAP1 PUSH2 0x475 JUMP JUMPDEST PUSH2 0x135 JUMP JUMPDEST PUSH1 0x40 MLOAD PUSH2 0x80 SWAP2 SWAP1 PUSH2 0x4D4 JUMP JUMPDEST PUSH1 0x40 MLOAD DUP1 SWAP2 SUB SWAP1 RETURN JUMPDEST PUSH2 0xA3 PUSH1 0x4 DUP1 CALLDATASIZE SUB DUP2 ADD SWAP1 PUSH2 0x9E SWAP2 SWAP1 PUSH2 0x475 JUMP JUMPDEST PUSH2 0x16C JUMP JUMPDEST PUSH1 0x40 MLOAD PUSH2 0xB0 SWAP2 SWAP1 PUSH2 0x507 JUMP JUMPDEST PUSH1 0x40 MLOAD DUP1 SWAP2 SUB SWAP1 RETURN JUMPDEST PUSH2 0xD3 PUSH1 0x4 DUP1 CALLDATASIZE SUB DUP2 ADD SWAP1 PUSH2 0xCE SWAP2 SWAP1 PUSH2 0x475 JUMP JUMPDEST PUSH2 0x20E JUMP JUMPDEST PUSH1 0x40 MLOAD PUSH2 0xE0 SWAP2 SWAP1 PUSH2 0x4D4 JUMP JUMPDEST PUSH1 0x40 MLOAD DUP1 SWAP2 SUB SWAP1 RETURN JUMPDEST PUSH2 0x103 PUSH1 0x4 DUP1 CALLDATASIZE SUB DUP2 ADD SWAP1 PUSH2 0xFE SWAP2 SWAP1 PUSH2 0x54A JUMP JUMPDEST PUSH2 0x23A JUMP JUMPDEST PUSH1 0x40 MLOAD PUSH2 0x110 SWAP2 SWAP1 PUSH2 0x5D5 JUMP JUMPDEST PUSH1 0x40 MLOAD DUP1 SWAP2 SUB SWAP1 RETURN JUMPDEST PUSH2 0x133 PUSH1 0x4 DUP1 CALLDATASIZE SUB DUP2 ADD SWAP1 PUSH2 0x12E SWAP2 SWAP1 PUSH2 0x475 JUMP JUMPDEST PUSH2 0x2E0 JUMP JUMPDEST STOP JUMPDEST PUSH0 PUSH2 0x13F DUP3 PUSH2 0x16C JUMP JUMPDEST PUSH2 0x147 JUMPI PUSH0 DUP1 REVERT JUMPDEST PUSH0 DUP3 PUSH1 0x40 MLOAD PUSH2 0x156 SWAP2 SWAP1 PUSH2 0x62F JUMP JUMPDEST SWAP1 DUP2 MSTORE PUSH1 0x20 ADD PUSH1 0x40 MLOAD DUP1 SWAP2 SUB SWAP1 KECCAK256 SLOAD SWAP1 POP SWAP2 SWAP1 POP JUMP JUMPDEST PUSH0 DUP1 PUSH0 SWAP1 POP JUMPDEST PUSH1 0x1 DUP1 SLOAD SWAP1 POP DUP2 LT ISZERO PUSH2 0x204 JUMPI DUP3 PUSH1 0x40 MLOAD PUSH1 0x20 ADD PUSH2 0x190 SWAP2 SWAP1 PUSH2 0x62F JUMP JUMPDEST PUSH1 0x40 MLOAD PUSH1 0x20 DUP2 DUP4 SUB SUB DUP2 MSTORE SWAP1 PUSH1 0x40 MSTORE DUP1 MLOAD SWAP1 PUSH1 0x20 ADD KECCAK256 PUSH1 0x1 DUP3 DUP2 SLOAD DUP2 LT PUSH2 0x1BA JUMPI PUSH2 0x1B9 PUSH2 0x645 JUMP JUMPDEST JUMPDEST SWAP1 PUSH0 MSTORE PUSH1 0x20 PUSH0 KECCAK256 ADD PUSH1 0x40 MLOAD PUSH1 0x20 ADD PUSH2 0x1D2 SWAP2 SWAP1 PUSH2 0x761 JUMP JUMPDEST PUSH1 0x40 MLOAD PUSH1 0x20 DUP2 DUP4 SUB SUB DUP2 MSTORE SWAP1 PUSH1 0x40 MSTORE DUP1 MLOAD SWAP1 PUSH1 0x20 ADD KECCAK256 SUB PUSH2 0x1F7 JUMPI PUSH1 0x1 SWAP2 POP POP PUSH2 0x209 JUMP JUMPDEST DUP1 DUP1 PUSH1 0x1 ADD SWAP2 POP POP PUSH2 0x172 JUMP JUMPDEST POP PUSH0 SWAP1 POP JUMPDEST SWAP2 SWAP1 POP JUMP JUMPDEST PUSH0 DUP2 DUP1 MLOAD PUSH1 0x20 DUP2 ADD DUP3 ADD DUP1 MLOAD DUP5 DUP3 MSTORE PUSH1 0x20 DUP4 ADD PUSH1 0x20 DUP6 ADD KECCAK256 DUP2 DUP4 MSTORE DUP1 SWAP6 POP POP POP POP POP POP PUSH0 SWAP2 POP SWAP1 POP SLOAD DUP2 JUMP JUMPDEST PUSH1 0x1 DUP2 DUP2 SLOAD DUP2 LT PUSH2 0x249 JUMPI PUSH0 DUP1 REVERT JUMPDEST SWAP1 PUSH0 MSTORE PUSH1 0x20 PUSH0 KECCAK256 ADD PUSH0 SWAP2 POP SWAP1 POP DUP1 SLOAD PUSH2 0x261 SWAP1 PUSH2 0x69F JUMP JUMPDEST DUP1 PUSH1 0x1F ADD PUSH1 0x20 DUP1 SWAP2 DIV MUL PUSH1 0x20 ADD PUSH1 0x40 MLOAD SWAP1 DUP2 ADD PUSH1 0x40 MSTORE DUP1 SWAP3 SWAP2 SWAP1 DUP2 DUP2 MSTORE PUSH1 0x20 ADD DUP3 DUP1 SLOAD PUSH2 0x28D SWAP1 PUSH2 0x69F JUMP JUMPDEST DUP1 ISZERO PUSH2 0x2D8 JUMPI DUP1 PUSH1 0x1F LT PUSH2 0x2AF JUMPI PUSH2 0x100 DUP1 DUP4 SLOAD DIV MUL DUP4 MSTORE SWAP2 PUSH1 0x20 ADD SWAP2 PUSH2 0x2D8 JUMP JUMPDEST DUP3 ADD SWAP2 SWAP1 PUSH0 MSTORE PUSH1 0x20 PUSH0 KECCAK256 SWAP1 JUMPDEST DUP2 SLOAD DUP2 MSTORE SWAP1 PUSH1 0x1 ADD SWAP1 PUSH1 0x20 ADD DUP1 DUP4 GT PUSH2 0x2BB JUMPI DUP3 SWAP1 SUB PUSH1 0x1F AND DUP3 ADD SWAP2 JUMPDEST POP POP POP POP POP DUP2 JUMP JUMPDEST PUSH2 0x2E9 DUP2 PUSH2 0x16C JUMP JUMPDEST PUSH2 0x2F1 JUMPI PUSH0 DUP1 REVERT JUMPDEST PUSH1 0x1 PUSH0 DUP3 PUSH1 0x40 MLOAD PUSH2 0x302 SWAP2 SWAP1 PUSH2 0x62F JUMP JUMPDEST SWAP1 DUP2 MSTORE PUSH1 0x20 ADD PUSH1 0x40 MLOAD DUP1 SWAP2 SUB SWAP1 KECCAK256 PUSH0 DUP3 DUP3 SLOAD PUSH2 0x31E SWAP2 SWAP1 PUSH2 0x7A4 JUMP JUMPDEST SWAP3 POP POP DUP2 SWAP1 SSTORE POP POP JUMP JUMPDEST PUSH0 PUSH1 0x40 MLOAD SWAP1 POP SWAP1 JUMP JUMPDEST PUSH0 DUP1 REVERT JUMPDEST PUSH0 DUP1 REVERT JUMPDEST PUSH0 DUP1 REVERT JUMPDEST PUSH0 DUP1 REVERT JUMPDEST PUSH0 PUSH1 0x1F NOT PUSH1 0x1F DUP4 ADD AND SWAP1 POP SWAP2 SWAP1 POP JUMP JUMPDEST PUSH32 0x4E487B7100000000000000000000000000000000000000000000000000000000 PUSH0 MSTORE PUSH1 0x41 PUSH1 0x4 MSTORE PUSH1 0x24 PUSH0 REVERT JUMPDEST PUSH2 0x387 DUP3 PUSH2 0x341 JUMP JUMPDEST DUP2 ADD DUP2 DUP2 LT PUSH8 0xFFFFFFFFFFFFFFFF DUP3 GT OR ISZERO PUSH2 0x3A6 JUMPI PUSH2 0x3A5 PUSH2 0x351 JUMP JUMPDEST JUMPDEST DUP1 PUSH1 0x40 MSTORE POP POP POP JUMP JUMPDEST PUSH0 PUSH2 0x3B8 PUSH2 0x328 JUMP JUMPDEST SWAP1 POP PUSH2 0x3C4 DUP3 DUP3 PUSH2 0x37E JUMP JUMPDEST SWAP2 SWAP1 POP JUMP JUMPDEST PUSH0 PUSH8 0xFFFFFFFFFFFFFFFF DUP3 GT ISZERO PUSH2 0x3E3 JUMPI PUSH2 0x3E2 PUSH2 0x351 JUMP JUMPDEST JUMPDEST PUSH2 0x3EC DUP3 PUSH2 0x341 JUMP JUMPDEST SWAP1 POP PUSH1 0x20 DUP2 ADD SWAP1 POP SWAP2 SWAP1 POP JUMP JUMPDEST DUP3 DUP2 DUP4 CALLDATACOPY PUSH0 DUP4 DUP4 ADD MSTORE POP POP POP JUMP JUMPDEST PUSH0 PUSH2 0x419 PUSH2 0x414 DUP5 PUSH2 0x3C9 JUMP JUMPDEST PUSH2 0x3AF JUMP JUMPDEST SWAP1 POP DUP3 DUP2 MSTORE PUSH1 0x20 DUP2 ADD DUP5 DUP5 DUP5 ADD GT ISZERO PUSH2 0x435 JUMPI PUSH2 0x434 PUSH2 0x33D JUMP JUMPDEST JUMPDEST PUSH2 0x440 DUP5 DUP3 DUP6 PUSH2 0x3F9 JUMP JUMPDEST POP SWAP4 SWAP3 POP POP POP JUMP JUMPDEST PUSH0 DUP3 PUSH1 0x1F DUP4 ADD SLT PUSH2 0x45C JUMPI PUSH2 0x45B PUSH2 0x339 JUMP JUMPDEST JUMPDEST DUP2 CALLDATALOAD PUSH2 0x46C DUP5 DUP3 PUSH1 0x20 DUP7 ADD PUSH2 0x407 JUMP JUMPDEST SWAP2 POP POP SWAP3 SWAP2 POP POP JUMP JUMPDEST PUSH0 PUSH1 0x20 DUP3 DUP5 SUB SLT ISZERO PUSH2 0x48A JUMPI PUSH2 0x489 PUSH2 0x331 JUMP JUMPDEST JUMPDEST PUSH0 DUP3 ADD CALLDATALOAD PUSH8 0xFFFFFFFFFFFFFFFF DUP2 GT ISZERO PUSH2 0x4A7 JUMPI PUSH2 0x4A6 PUSH2 0x335 JUMP JUMPDEST JUMPDEST PUSH2 0x4B3 DUP5 DUP3 DUP6 ADD PUSH2 0x448 JUMP JUMPDEST SWAP2 POP POP SWAP3 SWAP2 POP POP JUMP JUMPDEST PUSH0 DUP2 SWAP1 POP SWAP2 SWAP1 POP JUMP JUMPDEST PUSH2 0x4CE DUP2 PUSH2 0x4BC JUMP JUMPDEST DUP3 MSTORE POP POP JUMP JUMPDEST PUSH0 PUSH1 0x20 DUP3 ADD SWAP1 POP PUSH2 0x4E7 PUSH0 DUP4 ADD DUP5 PUSH2 0x4C5 JUMP JUMPDEST SWAP3 SWAP2 POP POP JUMP JUMPDEST PUSH0 DUP2 ISZERO ISZERO SWAP1 POP SWAP2 SWAP1 POP JUMP JUMPDEST PUSH2 0x501 DUP2 PUSH2 0x4ED JUMP JUMPDEST DUP3 MSTORE POP POP JUMP JUMPDEST PUSH0 PUSH1 0x20 DUP3 ADD SWAP1 POP PUSH2 0x51A PUSH0 DUP4 ADD DUP5 PUSH2 0x4F8 JUMP JUMPDEST SWAP3 SWAP2 POP POP JUMP JUMPDEST PUSH2 0x529 DUP2 PUSH2 0x4BC JUMP JUMPDEST DUP2 EQ PUSH2 0x533 JUMPI PUSH0 DUP1 REVERT JUMPDEST POP JUMP JUMPDEST PUSH0 DUP2 CALLDATALOAD SWAP1 POP PUSH2 0x544 DUP2 PUSH2 0x520 JUMP JUMPDEST SWAP3 SWAP2 POP POP JUMP JUMPDEST PUSH0 PUSH1 0x20 DUP3 DUP5 SUB SLT ISZERO PUSH2 0x55F JUMPI PUSH2 0x55E PUSH2 0x331 JUMP JUMPDEST JUMPDEST PUSH0 PUSH2 0x56C DUP5 DUP3 DUP6 ADD PUSH2 0x536 JUMP JUMPDEST SWAP2 POP POP SWAP3 SWAP2 POP POP JUMP JUMPDEST PUSH0 DUP2 MLOAD SWAP1 POP SWAP2 SWAP1 POP JUMP JUMPDEST PUSH0 DUP3 DUP3 MSTORE PUSH1 0x20 DUP3 ADD SWAP1 POP SWAP3 SWAP2 POP POP JUMP JUMPDEST DUP3 DUP2 DUP4 MCOPY PUSH0 DUP4 DUP4 ADD MSTORE POP POP POP JUMP JUMPDEST PUSH0 PUSH2 0x5A7 DUP3 PUSH2 0x575 JUMP JUMPDEST PUSH2 0x5B1 DUP2 DUP6 PUSH2 0x57F JUMP JUMPDEST SWAP4 POP PUSH2 0x5C1 DUP2 DUP6 PUSH1 0x20 DUP7 ADD PUSH2 0x58F JUMP JUMPDEST PUSH2 0x5CA DUP2 PUSH2 0x341 JUMP JUMPDEST DUP5 ADD SWAP2 POP POP SWAP3 SWAP2 POP POP JUMP JUMPDEST PUSH0 PUSH1 0x20 DUP3 ADD SWAP1 POP DUP2 DUP2 SUB PUSH0 DUP4 ADD MSTORE PUSH2 0x5ED DUP2 DUP5 PUSH2 0x59D JUMP JUMPDEST SWAP1 POP SWAP3 SWAP2 POP POP JUMP JUMPDEST PUSH0 DUP2 SWAP1 POP SWAP3 SWAP2 POP POP JUMP JUMPDEST PUSH0 PUSH2 0x609 DUP3 PUSH2 0x575 JUMP JUMPDEST PUSH2 0x613 DUP2 DUP6 PUSH2 0x5F5 JUMP JUMPDEST SWAP4 POP PUSH2 0x623 DUP2 DUP6 PUSH1 0x20 DUP7 ADD PUSH2 0x58F JUMP JUMPDEST DUP1 DUP5 ADD SWAP2 POP POP SWAP3 SWAP2 POP POP JUMP JUMPDEST PUSH0 PUSH2 0x63A DUP3 DUP5 PUSH2 0x5FF JUMP JUMPDEST SWAP2 POP DUP2 SWAP1 POP SWAP3 SWAP2 POP POP JUMP JUMPDEST PUSH32 0x4E487B7100000000000000000000000000000000000000000000000000000000 PUSH0 MSTORE PUSH1 0x32 PUSH1 0x4 MSTORE PUSH1 0x24 PUSH0 REVERT JUMPDEST PUSH32 0x4E487B7100000000000000000000000000000000000000000000000000000000 PUSH0 MSTORE PUSH1 0x22 PUSH1 0x4 MSTORE PUSH1 0x24 PUSH0 REVERT JUMPDEST PUSH0 PUSH1 0x2 DUP3 DIV SWAP1 POP PUSH1 0x1 DUP3 AND DUP1 PUSH2 0x6B6 JUMPI PUSH1 0x7F DUP3 AND SWAP2 POP JUMPDEST PUSH1 0x20 DUP3 LT DUP2 SUB PUSH2 0x6C9 JUMPI PUSH2 0x6C8 PUSH2 0x672 JUMP JUMPDEST JUMPDEST POP SWAP2 SWAP1 POP JUMP JUMPDEST PUSH0 DUP2 SWAP1 POP DUP2 PUSH0 MSTORE PUSH1 0x20 PUSH0 KECCAK256 SWAP1 POP SWAP2 SWAP1 POP JUMP JUMPDEST PUSH0 DUP2 SLOAD PUSH2 0x6ED DUP2 PUSH2 0x69F JUMP JUMPDEST PUSH2 0x6F7 DUP2 DUP7 PUSH2 0x5F5 JUMP JUMPDEST SWAP5 POP PUSH1 0x1 DUP3 AND PUSH0 DUP2 EQ PUSH2 0x711 JUMPI PUSH1 0x1 DUP2 EQ PUSH2 0x726 JUMPI PUSH2 0x758 JUMP JUMPDEST PUSH1 0xFF NOT DUP4 AND DUP7 MSTORE DUP2 ISZERO ISZERO DUP3 MUL DUP7 ADD SWAP4 POP PUSH2 0x758 JUMP JUMPDEST PUSH2 0x72F DUP6 PUSH2 0x6CF JUMP JUMPDEST PUSH0 JUMPDEST DUP4 DUP2 LT ISZERO PUSH2 0x750 JUMPI DUP2 SLOAD DUP2 DUP10 ADD MSTORE PUSH1 0x1 DUP3 ADD SWAP2 POP PUSH1 0x20 DUP2 ADD SWAP1 POP PUSH2 0x731 JUMP JUMPDEST DUP4 DUP9 ADD SWAP6 POP POP POP JUMPDEST POP POP POP SWAP3 SWAP2 POP POP JUMP JUMPDEST PUSH0 PUSH2 0x76C DUP3 DUP5 PUSH2 0x6E1 JUMP JUMPDEST SWAP2 POP DUP2 SWAP1 POP SWAP3 SWAP2 POP POP JUMP JUMPDEST PUSH32 0x4E487B7100000000000000000000000000000000000000000000000000000000 PUSH0 MSTORE PUSH1 0x11 PUSH1 0x4 MSTORE PUSH1 0x24 PUSH0 REVERT JUMPDEST PUSH0 PUSH2 0x7AE DUP3 PUSH2 0x4BC JUMP JUMPDEST SWAP2 POP PUSH2 0x7B9 DUP4 PUSH2 0x4BC JUMP JUMPDEST SWAP3 POP DUP3 DUP3 ADD SWAP1 POP DUP1 DUP3 GT ISZERO PUSH2 0x7D1 JUMPI PUSH2 0x7D0 PUSH2 0x777 JUMP JUMPDEST JUMPDEST SWAP3 SWAP2 POP POP JUMP INVALID LOG2 PUSH5 0x6970667358 0x22 SLT KECCAK256 ISZERO INVALID PUSH22 0x835BD4D23432DE9D41693CA00F95B6E229BFA270826D ADDMOD SWAP11 0x2D EQ SHR MCOPY ADD PUSH5 0x736F6C6343 STOP ADDMOD BYTE STOP CALLER "
				},
				"gasEstimates": {
					"creation": {
						"codeDepositCost": "412200",
						"executionCost": "infinite",
						"totalCost": "infinite"
					},
					"external": {
						"candidateList(uint256)": "infinite",
						"totalVotesFor(string)": "infinite",
						"validCandidate(string)": "infinite",
						"voteForCandidate(string)": "infinite",
						"votesReceived(string)": "infinite"
					}
				},
				"methodIdentifiers": {
					"candidateList(uint256)": "b13c744b",
					"totalVotesFor(string)": "4a3bf377",
					"validCandidate(string)": "538c91b2",
					"voteForCandidate(string)": "e89927ef",
					"votesReceived(string)": "8d4b44d9"
				}
			},
			"storageLayout": {
				"storage": [
					{
						"astId": 5,
						"contract": "contracts/DIOVoting.sol:DIOVoting",
						"label": "votesReceived",
						"offset": 0,
						"slot": "0",
						"type": "t_mapping(t_string_memory_ptr,t_uint256)"
					},
					{
						"astId": 8,
						"contract": "contracts/DIOVoting.sol:DIOVoting",
						"label": "candidateList",
						"offset": 0,
						"slot": "1",
						"type": "t_array(t_string_storage)dyn_storage"
					}
				],
				"types": {
					"t_array(t_string_storage)dyn_storage": {
						"base": "t_string_storage",
						"encoding": "dynamic_array",
						"label": "string[]",
						"numberOfBytes": "32"
					},
					"t_mapping(t_string_memory_ptr,t_uint256)": {
						"encoding": "mapping",
						"key": "t_string_memory_ptr",
						"label": "mapping(string => uint256)",
						"numberOfBytes": "32",
						"value": "t_uint256"
					},
					"t_string_memory_ptr": {
						"encoding": "bytes",
						"label": "string",
						"numberOfBytes": "32"
					},
					"t_string_storage": {
						"encoding": "bytes",
						"label": "string",
						"numberOfBytes": "32"
					},
					"t_uint256": {
						"encoding": "inplace",
						"label": "uint256",
						"numberOfBytes": "32"
					}
				}
			},
			"userdoc": {
				"kind": "user",
				"methods": {},
				"version": 1
			}
		}
	}
}